:100000000C944A250C947B250C947B250C947B2521
:100010000C947B250C947B250C947B250C947B25E0
:100020000C947B250C947B250C947B250C947B25D0
:100030000C947B250C94D0F40C947B250C947B259C
:100040000C947B250C9466870C947B250C947B2563
:100050000C947B250C947B250C94BA980C9496EE0A
:100060000C947B250C94C12D0C947B250C947B2542
:100070000C947B250C947B250C947B250C947B2580
:100080000C947B250C947B250C947B250C947B2570
:100090000C947B250C947B250C947B250C947B2560
:1000A0000C947B250C947B250C947B250C947B2550
:1000B0000C947B250C947B250C947B250C947B2540
:1000C0000C947B250C947B250C947B250C947B2530
:1000D0000C947B250C947B250C947B250C947B2520
:1000E0000C947B2518992799439952996C997B997F
:1000F000959999999B999F99A799CCEFD1EFD6EFB4
:10010000E0EFEAEF63F0F4EFFCEF04F00EF018F02C
:1001100022F031F03BF063F045F04FF059F085F0FC
:1001200088F077F07BF081F0BFF08CF090F096F0E3
:100130009AF09EF0A4F0A8F0ACF0BFF0B2F0B6F0E8
:10014000BAF0084AD73B3BCE016E84BCBFFDC12F3D
:100150003D6C74319ABD56833DDA3D00C77F11BEB8
:10016000D9E4BB4C3E916BAAAABE000000803F05BB
:10017000A84CCDB2D44EB93836A9020C50B99186EC
:1001800088083CA6AAAA2ABE000000803F00486159
:100190007264636F6465642044656661756C742085
:1001A00053657474696E6773204C6F616465640095
:1001B00053746F7265642073657474696E6773201D
:1001C0007265747269657665640046696C616D6517
:1001D0006E742073657474696E67733A2044697332
:1001E00061626C6564002020204D32303020440074
:1001F00046696C616D656E742073657474696E67B1
:10020000733A002020204D3230392053004175745C
:100210006F2D526574726163743A20533D302074BF
:100220006F2064697361626C652C203120746F20CB
:10023000696E746572707265742065787472756425
:10024000652D6F6E6C79206D6F76657320617320FC
:100250007265747261637473206F72207265636F6C
:10026000766572696573002046002020204D32308B
:10027000382053005265636F7665723A20533D45CE
:1002800078747261206C656E67746820286D6D29C2
:1002900020463A537065656420286D6D2F6D2900E6
:1002A000205A002046002020204D323037205300B5
:1002B000526574726163743A20533D4C656E677485
:1002C0006820286D6D2920463A53706565642028A2
:1002D0006D6D2F6D29205A3A205A4C69667420287A
:1002E0006D6D29002044002049002020204D33302E
:1002F000312050005049442073657474696E6773EF
:100300003A00205A0020590020204D323036205823
:1003100000486F6D65206F666673657420286D6D8B
:10032000293A00204500205A002058002042002091
:10033000540020204D323035205300416476616EE8
:10034000636564207661726961626C65733A2053FB
:100350003D4D696E20666565647261746520286D27
:100360006D2F73292C20543D4D696E207472617677
:10037000656C20666565647261746520286D6D2FFB
:1003800073292C20423D6D696E696D756D20736512
:10039000676D656E742074696D6520286D73292CF6
:1003A00020583D6D6178696D756D205859206A65DA
:1003B000726B20286D6D2F73292C20205A3D6D61A2
:1003C00078696D756D205A206A65726B20286D6D95
:1003D0002F73292C2020453D6D6178696D756D2046
:1003E00045206A65726B20286D6D2F73290020549B
:1003F0000020204D323034205300416363656C652A
:10040000726174696F6E3A20533D616363656C6518
:10041000726174696F6E2C20543D726574726163F1
:100420007420616363656C65726174696F6E00202E
:100430004500205A0020590020204D3230312058EC
:10044000004D6178696D756D20416363656C6572FF
:100450006174696F6E20286D6D2F7332293A002008
:100460004500205A0020590020204D3230332058BA
:10047000004D6178696D756D2066656564726174A3
:10048000657320286D6D2F73293A00204500205A8E
:100490000020590020204D393220580053746570D7
:1004A000732070657220756E69743A0053657474B8
:1004B000696E67732053746F7265640050415241D6
:1004C0004441005072696E7465722073746F70706D
:1004D00065642064756520746F206572726F727335
:1004E0002E2046697820746865206572726F7220CC
:1004F000616E6420757365204D39393920746F2021
:10050000726573746172742E202854656D70657203
:1005100061747572652069732072657365742E202D
:100520005365742069742061667465722072657306
:1005300074617274696E67290050415241444120D0
:10054000444520454D4552472E005072696E7465F2
:10055000722068616C7465642E206B696C6C28294C
:100560002063616C6C656421006F6B00526573657C
:100570006E643A20002200556E6B6E6F776E2063BA
:100580006F6D6D616E643A20220043616D62696136
:10059000722066696C616D656E746F004F6666737C
:1005A0006574205A203A20007A5F6D61783A200005
:1005B0007A5F6D696E3A20004F6666736574205AE3
:1005C000004F6666736574205A206F6B006C63641D
:1005D00020636F6E74726173742076616C75653A16
:1005E00020002200556E6B6E6F776E20636F6D6D0D
:1005F000616E643A2022007A5F6D696E3A2000795C
:100600005F6D696E3A2000785F6D696E3A20002058
:100610005A3A0020593A0020436F756E7420583AB8
:10062000200020453A00205A3A0020593A00583A12
:10063000004649524D574152455F4E414D453A4D56
:1006400061726C696E2056313B20537072696E7412
:1006500065722F6772626C206D61736875702066B9
:100660006F722067656E36204649524D574152459C
:100670005F55524C3A68747470733A2F2F676974DF
:100680006875622E636F6D2F4D6F65627975732F7C
:10069000507275736149332050524F544F434F4C41
:1006A0005F56455253494F4E3A312E30204D41430B
:1006B00048494E455F545950453A4D6F65627975CA
:1006C0007347656E2045585452554445525F434F19
:1006D000554E543A3120555549443A303030303037
:1006E0003030302D303030302D303030302D303013
:1006F00030302D3030303030303030303030300A23
:10070000004D6F656279757347656E204F66662E82
:10071000004D6F656279757347656E206C697374FF
:10072000612E0042656420646F6E652E0020423A9F
:100730000020453A00543A004265642048656174DF
:10074000696E672E0048656174696E6720646F6E1C
:10075000652E0020573A0020453A00543A0048657B
:100760006174696E672E2E2E002042403A002040B0
:100770003A00202F003A00205400202F0020423A57
:1007800000202F006F6B20543A002569206D696EA0
:100790002C2025692073656300456E642066696CB2
:1007A00065206C69737400426567696E2066696CC8
:1007B00065206C6973740053696E206D6F76696D86
:1007C00069656E746F004D6F656279757347656E0C
:1007D000206C697374612E00526573756D69656E66
:1007E000646F20696D7072652E004573706572616B
:1007F0006E646F206F7264656E6573005265706F12
:10080000736F2E2E2E00256920686F757273202558
:1008100069206D696E7574657300446F6E65207034
:1008200072696E74696E672066696C65005041522A
:10083000414441005072696E7465722073746F7028
:100840007065642064756520746F206572726F72C4
:10085000732E2046697820746865206572726F7205
:1008600020616E6420757365204D39393920746FAD
:1008700020726573746172742E202854656D7065E2
:100880007261747572652069732072657365742E68
:1008900020536574206974206166746572207265E6
:1008A0007374617274696E6729004E6F204C696EB3
:1008B00065204E756D626572207769746820636883
:1008C00065636B73756D2C204C617374204C696E7D
:1008D000653A20004E6F20436865636B73756D2029
:1008E00077697468206C696E65206E756D626572DB
:1008F0002C204C617374204C696E653A200063684B
:1009000065636B73756D206D69736D617463682CBD
:10091000204C617374204C696E653A20004C696EFE
:1009200065204E756D626572206973206E6F74204C
:100930004C617374204C696E65204E756D626572F2
:100940002B312C204C617374204C696E653A200069
:100950004D31313000446F6E6520736176696E678A
:100960002066696C652E006F6B004D3239002020C7
:10097000506C616E6E65724275666665724279741E
:1009800065733A20002046726565204D656D6F7273
:10099000793A20004465632033302032303136000C
:1009A000436F6D70696C65643A2000284D6F656215
:1009B0007975732C206D6F6562797573406D6F6505
:1009C000627975732E636F6D2900207C20417574E8
:1009D000686F723A20004465632033302032303132
:1009E000362031373A31353A313800204C61737452
:1009F00020557064617465643A2000312E302E30C9
:100A0000004D61726C696E0020536F66747761727D
:100A10006520526573657400205761746368646F64
:100A200067205265736574002042726F776E206F85
:100A30007574205265736574002045787465726E14
:100A4000616C20526573657400506F7765725570E4
:100A5000007374617274002200656E717565696E51
:100A6000672022002200656E717565696E6720221D
:100A700000FFFFFF00000040000000400000C03FFA
:100A800000005E4300004D4300006643000088C143
:100A9000000000000000000000004D4300004D4336
:100AA00000006643000088C1000000000000000054
:100AB0006563686F3A004572726F723A007C3C3E23
:100AC0005E2B3D3F2F5B5D3B2C2A225C004D383472
:100AD00020582059205A20450043616E6E6F7420C3
:100AE000656E746572207375626469723A20004D98
:100AF0003234004D3233202573006175746F2569DF
:100B00002E67006572726F722077726974696E6702
:100B100020746F2066696C65004E6F74205344200A
:100B20007072696E74696E67002F00534420707292
:100B3000696E74696E67206279746520002E0044C6
:100B4000656C6574696F6E206661696C65642C20E4
:100B500046696C653A200046696C652064656C6581
:100B60007465643A002E006F70656E206661696C72
:100B700065642C2046696C653A2000577269746977
:100B80006E6720746F2066696C653A20002E006FD6
:100B900070656E206661696C65642C2046696C65C1
:100BA0003A20002E006F70656E206661696C656486
:100BB0002C2046696C653A200046696C6520736597
:100BC0006C6563746564002053697A653A20004659
:100BD000696C65206F70656E65643A20002E006F49
:100BE00070656E206661696C65642C2046696C6571
:100BF0003A20004E6F772066726573682066696CD4
:100C0000653A20004E6F7720646F696E67206669D1
:100C10006C653A20002220706F7300222070617290
:100C2000656E743A2200535542524F5554494E4511
:100C30002043414C4C207461726765743A22007401
:100C40007279696E6720746F2063616C6C207375B4
:100C5000622D67636F64652066696C6573207769D0
:100C6000746820746F6F206D616E79206C65766595
:100C70006C732E204D4158206C6576656C2069732D
:100C80003A0053442063617264206F6B006F70659B
:100C90006E526F6F74206661696C656400766F6C6C
:100CA000756D652E696E6974206661696C65640096
:100CB000534420696E6974206661696C0020746F0A
:100CC0006F206C6F6E6720657874727573696F6ED4
:100CD0002070726576656E7465640020636F6C6465
:100CE00020657874727573696F6E207072657665B1
:100CF0006E74656400656E6473746F7073206869E8
:100D0000743A205A00205A3A00656E6473746F700A
:100D100073206869743A20590020593A00656E645E
:100D200073746F7073206869743A20580020583AC1
:100D300000656E6473746F7073206869743A200084
:100D400024F4D43050C38E20C2A24017828B70117D
:100D5000127A910D816CD90AA861E108C75866071B
:100D6000615143061E4B5D05C145A7041A4111049C
:100D7000093D9803713931034036DB026533910236
:100D8000D4305402802E1D02632CEE01752AC50159
:100D9000B028A001102781018F2564012B244B016D
:100DA000E0223401AC211F018D200D01801FFC00C9
:100DB000841EED00971DDF00B81CD200E61BC600A4
:100DC000201BBC00641AB200B219A8000A19A000C6
:100DD0006A189900D117910040178B00B51684004E
:100DE00031167E00B31579003A157300C7146F00F1
:100DF00058146A00EE1366008813630025135E0022
:100E0000C7125B006C12570015125400C11151003B
:100E100070114F0021114B00D61049008D10470072
:100E20004610440002104200C00F4000800F3E00F8
:100E3000420F3C00060F3B00CB0E3800930E3700EC
:100E40005C0E3500270E3400F30D3200C10D310069
:100E5000900D3000600D2E00320D2D00050D2C0080
:100E6000D90C2B00AE0C2900850C29005C0C270046
:100E7000350C27000E0C2600E80B2400C40B2400C0
:100E8000A00B23007D0B23005A0B2100390B2100FE
:100E9000180B2000F80A1F00D90A1E00BB0A1E000A
:100EA0009D0A1D00800A1D00630A1C00470A1B00E2
:100EB0002C0A1B00110A1A00F7091A00DD09190093
:100EC000C4091900AB091900920917007B09180021
:100ED000630917004C091600360916002009160090
:100EE0000A091500F5081500E0081400CC081400E4
:100EF000B8081400A4081400900813007D0812001C
:100F00006B0813005808120046081200340811003C
:100F1000230811001208110001081100F007100049
:100F2000E0071000D0071000C0071000B0070F0046
:100F3000A107100091070E0083070F0074070F0030
:100F400065070E0057070E0049070E003B070D000E
:100F50002E070E0020070D0013070D0006070D00D9
:100F6000F9060C00ED060D00E0060C00D4060C009E
:100F7000C8060C00BC060C00B0060C00A4060B0052
:100F800099060C008D060B0082060B0077060B00FD
:100F90006C060B0061060A0057060B004C060A009F
:100FA00042060A0038060A002E060A0024060A0035
:100FB0001A060A001006090007060A00FD050900C6
:100FC000F4050900EB050900E2050900D90509004F
:100FD000D0050900C7050900BE050900B5050800D0
:100FE000AD050800A50509009C050800940508004A
:100FF0008C050800840508007C05080074050800BD
:101000006C050700650508005D050700560508002A
:101010004E05070047050700400508003805070092
:10102000310507002A050700230507001C050600F7
:10103000160507000F050700080506000205070052
:10104000FB040600F5040700EE040600E8040600B1
:10105000E2040700DB040600D5040600CF04060006
:10106000C9040600C3040600BD040600B704060058
:10107000B1040500AC040600A6040600A0040500A7
:101080009B04060095040500900406008A040500F0
:1010900085040500800406007A0405007504050037
:1010A000700405006B04050066040500610405007A
:1010B0005C04050057040500520405004D040500BA
:1010C00048040500430405003E0404003A040500FA
:1010D00035040500300404002C0405002704040036
:1010E000230405001E0404001A040400160405006D
:1010F000110404000D0404000904050004040400A4
:1011000000040400FC030400F8030400F4030400DA
:10111000F0030400EC030400E8030400E40304000B
:10112000E0030400DC030400D8030400D40304003B
:10113000D0030400CC030400C8030300C50303006C
:1011400024F404D9201BC40C5C0E9804C4095F026B
:1011500065077101F405F900FB04B300480487003A
:10116000C10369005803550003034500BE023A005D
:101170008402310053022A002902250004022000C3
:10118000E4011C00C8011900AF0117009801140008
:1011900084011300710110006101100051010E0063
:1011A00043010D0036010B002B010B0020010B0049
:1011B000150109000C01090003010800FB000800EB
:1011C000F3000800EB000700E4000600DE00060064
:1011D000D8000600D2000600CC000500C7000500BC
:1011E000C2000500BD000400B9000400B500040001
:1011F000B1000400AD000400A9000400A500030034
:10120000A20003009F0004009B000300980003005D
:101210009500020093000300900003008D0002007F
:101220008B00030088000200860002008400030097
:10123000810002007F0002007D0002007B000200AE
:1012400079000200770001007600020074000200BD
:1012500072000100710002006F0002006D000100C9
:101260006C0002006A0001006900020067000100D2
:1012700066000100650001006400020062000100D8
:1012800061000100600001005F0002005D000100DC
:101290005C0001005B0001005A00010059000100E0
:1012A00058000100570001005600010055000100E0
:1012B00054000100530000005300010052000100DF
:1012C00051000100500001004F0001004E000000DD
:1012D0004E0001004D0001004C0001004B000000D9
:1012E0004B0001004A0001004900010048000000D5
:1012F00048000100470001004600000046000100D0
:1013000045000000450001004400010043000000CA
:1013100043000100420000004200010041000000C3
:1013200041000100400001003F0000003F000100BB
:101330003E0000003E0001003D0000003D000100B5
:101340003C0000003C0000003C0001003B000000AD
:101350003B0001003A0000003A00010039000000A3
:10136000390001003800000038000000380001009A
:101370003700000037000100360000003600000092
:101380003600010035000000350000003500010086
:10139000340000003400000034000100330000007D
:1013A0003300000033000100320000003200000072
:1013B0003200010031000000310000003100010066
:1013C0003000000030000000300001002F0000005D
:1013D0002F0000002F0000002F0001002E00000051
:1013E0002E0000002E0001002D0000002D00000046
:1013F0002D0000002D0001002C0000002C0000003A
:101400002C0000002C0001002B0000002B0000002D
:101410002B0000002B0001002A0000002A00000021
:101420002A0000002A000100290000002900000015
:101430002900000029000000290001002800000008
:1014400028000000280000002800000028000100FB
:1014500027000000270000002700000027000000F0
:1014600027000100260000002600000026000000E2
:1014700026000000260001002500000025000000D5
:1014800025000000250000002500000025000100C7
:1014900024000000240000002400000024000000BC
:1014A00024000100230000002300000023000000AE
:1014B000230000002300000023000000230001009F
:1014C0002200000022000000220000002200000094
:1014D0002200000022000100210000002100000085
:1014E0002100000021000000210000002100000078
:1014F000210001002000000020000000200000006A
:10150000200000002000000020000000200000005B
:10151000200001001F0000001F0000001F0000004D
:101520001F0000001F0000001F0000001F0001003E
:101530001E0000001E0000001E0000001E00000033
:101540004572723A204D415854454D502042454411
:101550000054656D706572617475726520686561AF
:101560007465642062656420737769746368656478
:10157000206F66662E204D415854454D50207472A0
:1015800069676765726564202121004572723A209F
:101590004D494E54454D50003A204578747275645B
:1015A0006572207377697463686564206F66662E60
:1015B000204D494E54454D502074726967676572DD
:1015C00065642021004572723A204D415854454DC2
:1015D00050003A204578747275646572207377699B
:1015E0007463686564206F66662E204D41585445CB
:1015F0004D50207472696767657265642021002010
:101600002D20496E76616C6964206578747275640A
:101610006572206E756D626572202100504944200C
:101620004175746F74756E652066696E697368655F
:1016300064212050757420746865206C6173742077
:101640004B702C204B6920616E64204B6420636FCB
:101650006E7374616E74732066726F6D2061626F59
:10166000766520696E746F20436F6E666967757268
:101670006174696F6E2E6800504944204175746F23
:1016800074756E65206661696C6564212074696D8E
:10169000656F75740020403A006F6B20543A006FFC
:1016A0006B20423A00504944204175746F74756E46
:1016B00065206661696C6564212054656D70657292
:1016C000617475726520746F6F20686967680020A7
:1016D0004B643A2000204B693A2000204B703A209E
:1016E0000020436C617373696320504944200020DB
:1016F00054753A2000204B753A2000206D61783AED
:101700002000206D696E3A200020643A200020629B
:101710006961733A20001000C90210012C014001D8
:10172000220170011801B0010E01F0010401500204
:10173000FA00B002F0003003E600D003DC009004B1
:10174000D2007005C800A006BE000008B400B009B1
:10175000AA00D00BA000600E960060118C0000154E
:10176000820020197800C01D6E00A0226400B027FE
:101770005A00902C500000314600E0343C001038F4
:101780003200903A2800603C1E00A03D1400803ECC
:101790000A00203F000070012C0190012701B001D8
:1017A0002201C0011D01F0011801100213013002D5
:1017B0000E016002090190020401C002FF00000353
:1017C000FA004003F5008003F000D003EB00200492
:1017D000E6007004E100E004DC004005D700C0052D
:1017E000D2004006CD00D006C8008007C3003008F4
:1017F000BE00F008B900C009B400B00AAF00B00BD9
:10180000AA00D00CA500000EA000500F9B00C01035
:1018100096005012910000148C00C0158700B0177C
:101820008200B0197D00D01B7800001E730040209C
:101830006E0090226900F024640040275F00902928
:101840005A00E02B5500102E500020304B00103273
:101850004600E033410090353C00103737007038C7
:101860003200A0392D00B03A2800A03B2300603C94
:101870001E00103D1900903D1400103E0F00703EF8
:101880000A00C03E0500003F00005461726A6574A2
:1018900061207265746972616461005461726A6585
:1018A000746120636F6C6F63616461004D3330302D
:1018B00020533639382050323030004D333030200C
:1018C00053363539205032303000B02000B020007F
:1018D00059002D2D3A2D2D00426162797374657087
:1018E00070696E6720580042616279737465707028
:1018F000696E67205900426162797374657070691E
:101900006E67205A004D3630300043616D62696168
:10191000722066696C616D656E746F0042616279F8
:1019200073746570205A0042616279737465702027
:1019300059004261627973746570205800466C7575
:101940006A6F203000466C756A6F203000466C75F7
:101950006A6F00466C756A6F0056656E74696C61DB
:10196000646F720056656E74696C61646F720042D8
:101970006173650042617365004E6F7A7A6C650031
:101980004E6F7A7A6C650056656C6F63696461644A
:101990000056656C6F6369646164004D656E752007
:1019A0007072696E636970616C0050726563616C1E
:1019B0002E20504C41204261736500507265636176
:1019C0006C656E74617220504C412031005072651C
:1019D00070617261720050726563616C2E204142C9
:1019E0005320426173650050726563616C656E746B
:1019F0006172204142532031005072657061726102
:101A00007200580059005A00457874727564657206
:101A1000004578747275736F72004D6F7665722031
:101A20005A004D6F7665722059004D6F76657220B1
:101A300058004D6F76657220656A6573004D6F764C
:101A4000657220302E316D6D004D6F7665722031DC
:101A50006D6D004D6F7665722031306D6D00507286
:101A6000657061726172004D6F76657220656A659E
:101A700073004D383000456E63656E646572004DCD
:101A800038310041706167617200456E667269614C
:101A9000720050726563616C656E746172204142C0
:101AA000530050726563616C656E74617220504CB6
:101AB0004100416A7573746172206F666673657464
:101AC0007300473238004C6C6576617220616C207F
:101AD0006F726967656E004D3834004170616761EF
:101AE00072206D6F746F726573004D656E75207036
:101AF00072696E636970616C0047756172646172CE
:101B0000206D656D6F7269610042617365004261AD
:101B10007365004E6F7A7A6C65004E6F7A7A6C65E9
:101B20000056656E74696C61646F720056656E7400
:101B3000696C61646F720054656D70657261747573
:101B400072610047756172646172206D656D6F72BC
:101B5000696100426173650042617365004E6F7A8E
:101B60007A6C65004E6F7A7A6C650056656E7469A2
:101B70006C61646F720056656E74696C61646F723B
:101B80000054656D706572617475726100416A75AB
:101B9000737461722074656D702E20414253004150
:101BA0006A75737461722074656D702E20504C419B
:101BB000005049442D43005049442D4300504944AE
:101BC0002D44005049442D44005049442D490050B3
:101BD00049442D49005049442D50005049442D504E
:101BE00000022046616374000220466163740002B3
:101BF000204D61780002204D61780002204D696E11
:101C00000002204D696E004F6666004F6E004F6601
:101C100066004F6E004175746F74656D7000566597
:101C20006E74696C61646F720056656E74696C6184
:101C3000646F7200426173650042617365004E6FAC
:101C40007A7A6C65004E6F7A7A6C6500436F6E74B9
:101C5000726F6C0045207061736F732F6D6D00455E
:101C6000207061736F732F6D6D005A207061736FF8
:101C7000732F6D6D005A207061736F732F6D6D003F
:101C800059207061736F732F6D6D005920706173EF
:101C90006F732F6D6D0058207061736F732F6D6DB2
:101CA0000058207061736F732F6D6D00412D726548
:101CB000747261632E00412D7265747261632E002F
:101CC000416D61786500416D61786500416D6178B5
:101CD0007A00416D61787A00416D61787900416DDB
:101CE00061787900416D61787800416D61787800A4
:101CF00056766163696F206D696E0056766163691F
:101D00006F206D696E00566D696E00566D696E00CC
:101D1000566D61786500566D61786500566D617825
:101D20007A00566D61787A00566D61787900566D4B
:101D300061787900566D61787800566D6178780029
:101D400056652D6A65726B0056652D6A65726B006B
:101D5000567A2D6A65726B00567A2D6A65726B0031
:101D60005678792D6A65726B005678792D6A65729E
:101D70006B004163656C004163656C00436F6E747A
:101D8000726F6C0046696C2E204469612E20310010
:101D900046696C2E204469612E2031004F66660032
:101DA0004F6E004F6666004F6E004520696E206DD5
:101DB0006D3300436F6E74726F6C00436F6E74729C
:101DC0006173746500446573526574205600446500
:101DD00073526574205600446573526574202B6DF0
:101DE0006D00446573526574202B6D6D004C6576F3
:101DF000616E746172206D6D004C6576616E746108
:101E000072206D6D005265747261657220205600FB
:101E10005265747261657220205600526574726159
:101E20006572206D6D0052657472616572206D6D12
:101E3000004F6666004F6E004F6666004F6E0041B1
:101E400075746F526574722E00436F6E74726F6C8E
:101E500000526573742E20646520656D6572676538
:101E60006E2E00436172676172206D656D6F7269DD
:101E7000610047756172646172206D656D6F726992
:101E800061005265747261657200436F6E747261B5
:101E90007374650046696C616D656E74004D6F7694
:101EA000696D69656E746F0054656D7065726174FB
:101EB000757261004D656E75207072696E63697030
:101EC000616C004D383420582059205A2045004D6F
:101ED0003234004D323320257300F92E2E004D652B
:101EE0006E75207072696E636970616C004E6F2050
:101EF000686179207461726A657461205344004D91
:101F0000656E7520646520534400446574656E6594
:101F10007220696D70726573696F6E005265616ED3
:101F20007564617220696D707265732E0050617501
:101F300073617220696D70726573696F6E00436FB3
:101F40006E74726F6C0050726570617261720041E4
:101F50006A7573746172004D6F6E69746F72697A1D
:101F600061720000060900FE070199032B20FFFEA5
:101F700008FE07FE00000006000001070706020039
:101F800080808080800080030303060104A0A0A05D
:101F90000507070600005050F850F8505005070795
:101FA0000600002070A070287020050707060000BA
:101FB00048A8502050A89005070706000040A0A0A0
:101FC00040A890680103030602048080800307078D
:101FD00006010020408080804020030707060100A2
:101FE000804020202040800505050600018850F82B
:101FF00050880505050600012020F8202003030372
:102000000601FF604080050101060003F803030399
:102010000601FF40E0400507070600000808102001
:1020200040808005070706000020508888885020DF
:102030000507070600002060A0202020F8050707FC
:10204000060000708808304080F805070706000089
:10205000F808103008887005070706000010305097
:1020600090F81010050707060000F880B0C808882F
:1020700070050707060000304080B0C8887005076B
:1020800007060000F808101020404005070706006A
:1020900000708888708888700507070600007088BF
:1020A00098680810600307070601FF40E040004001
:1020B000E0400307070601FF40E040006040800465
:1020C000070706010010204080402010050303068A
:1020D0000002F800F80407070601008040201020E5
:1020E00040800507070600007088102020002005AA
:1020F0000707060000708898A8B0807005070706DB
:10210000000020508888F88888050707060000F03E
:102110004848704848F0050707060000708880802E
:10212000808870050707060000F04848484848F0D6
:10213000050707060000F88080F08080F805070793
:10214000060000F88080F080808005070706000008
:102150007088808098887005070706000088888846
:10216000F8888888030707060100E04040404040A7
:10217000E0050707060000381010101090600507F2
:10218000070600008890A0C0A090880507070600F9
:1021900000808080808080F805070706000088881E
:1021A000D8A88888880507070600008888C8A898E6
:1021B0008888050707060000708888888888700569
:1021C0000707060000F08888F08080800508080670
:1021D00000FF7088888888A8700805070706000037
:1021E000F08888F0A09088050707060000708880B6
:1021F00070088870050707060000F82020202020BE
:1022000020050707060000888888888888700507E9
:1022100007060000888888505050200507070600F0
:1022200000888888A8A8D88805070706000088883D
:102230005020508888050707060000888850202015
:102240002020050707060000F80810204080F8034A
:102250000707060100E08080808080E00507070610
:10226000000080804020100808030707060100E0F6
:102270002020202020E005030306000420508805CC
:1022800001010600FFF80202020602068040050571
:1022900005060000700878887805070706000080AA
:1022A00080B0C888C8B00505050600007088808821
:1022B00070050707060000080868988898680505F3
:1022C000050600007088F8807005070706000030DA
:1022D0004840F04040400507070600FE78888878AF
:1022E0000888700507070600008080B0C8888888C5
:1022F0000307070601004000C0404040E004090910
:102300000601FE10003010101090906005070706BF
:10231000000080808890E09088030707060100C0D5
:102320004040404040E0050505060000D0A8A8A8B0
:1023300088050505060000B0C888888805050506DB
:10234000000070888888700507070600FEB0C888FE
:10235000C8B080800507070600FE6898889868085E
:1023600008050505060000B0C88080800505050643
:10237000000070807008F00507070600004040F07C
:1023800040404830050505060000888888986805A3
:102390000505060000888850502005050506000048
:1023A0008888A8A850050505060000885020508898
:1023B0000507070600FE88889868088870050505E7
:1023C000060000F8102040F804070706010030401E
:1023D00020C02040300107070602008080808080F6
:1023E0008080040707060100C02040304020C0055F
:1023F000030306000448A89000000001000000004C
:1024000000010000000000010000000000010000C9
:1024100000000001000000000001000000000001B9
:1024200000000000000100000000000100000000AA
:102430000001000000000001000000000001000099
:102440000000000100000000000100000000000189
:10245000000000000001000000000001000000007A
:102460000001000000000001000000000001000069
:102470000000000100000000000100000000000159
:10248000000000000001000000000001000000004A
:102490000001000000000001000000000001000039
:1024A0000000000100000000000100000000000129
:1024B000000000000001000000000001000000001A
:1024C000000600000107070602008000808080806F
:1024D000800507070600FF2078A0A0A07820050748
:1024E00007060000304840E04048B00505050600FA
:1024F0000088705070880508080600FF8888502002
:10250000F8202020010707060200808080008080DC
:10251000800508080600FF7080E0904838087003C6
:102520000101060107A00507070600007088A8C87A
:10253000A888700406060601017090B05000F006ED
:102540000505060000244890482404020206010202
:10255000F010040101060103F005070706000070F2
:1025600088E8C8C88870050101060007F80303035E
:1025700006010440A0400506060600002020F820C1
:1025800020F804050506010360902040F0040505CD
:10259000060103E0106010E002020206020640801D
:1025A0000506060600FF888888C8B080050707066C
:1025B000000078E8E8682828280101010602038065
:1025C0000202020602FE408003050506010340C028
:1025D0004040E00406060601016090906000F006AD
:1025E000050506000090482448900609090600FFEA
:1025F00040C04040E40C143C040609090600FF40BA
:10260000C04040E81404081C0509090600FFC0206A
:102610004020C81828780805070706000020002079
:10262000204088700508080600004020708888F85F
:1026300088880508080600001020708888F88888B7
:102640000508080600002050708888F8888805086A
:102650000806000048B0708888F8888805080806D1
:1026600000005000708888F8888805080806000077
:102670002050708888F888880607070600003C50BC
:10268000909CF0909C0509090600FE70888080806F
:102690008870204005080806000040F88080F0801F
:1026A00080F805080806000010F88080F08080F8A7
:1026B00005080806000020F88080F08080F80508F2
:1026C0000806000050F88080F08080F803080806B3
:1026D00001008040E040404040E00308080601005F
:1026E0002040E040404040E003080806010040A0D0
:1026F000E040404040E0030808060100A000E04040
:10270000404040E0050707060000F04848E8484818
:10271000F0050808060000285088C8A89888880591
:10272000080806000040207088888888700508081E
:102730000600001020708888888870050808060048
:1027400000205070888888887005080806000028D6
:10275000507088888888700508080600005000704E
:1027600088888888700505050600008850205088F4
:10277000050707060000709898A8C8C870050808E3
:1027800006000040208888888888700508080600B0
:1027900000102088888888887005080806000020B6
:1027A0005000888888887005080806000050008856
:1027B00088888888700508080600001020888850DE
:1027C00020202005070706000080F088F080808028
:1027D000050707060000708890A09088B0050808DB
:1027E0000600004020007008788878050808060078
:1027F000001020007008788878050808060000207E
:1028000050007008788878050808060000285000F5
:10281000700878887805070706000050007008786F
:10282000887805080806000020502070087888780D
:1028300006050506000078147C907C050707060055
:10284000FE7088808870204005080806000040203F
:10285000007088F8807005080806000010200070DD
:1028600088F880700508080600002050007088F87D
:10287000807005070706000050007088F88070031C
:102880000808060100804000C0404040E0030808FE
:10289000060100408000C0404040E00308080601F7
:1028A0000040A000C0404040E0060A0A0600FEA426
:1028B000A800FC8480808084FC060A0A0600FE547E
:1028C0009400FC8404040484FC0508080600002825
:1028D0005000B0C88888880508080600004020001D
:1028E0007088888870040A0A0602FE304080909042
:1028F0009090909090040A0A0600FEC020109090DC
:102900009090909090060707060001448C8C84807C
:10291000403C06070706000188C4C4840408F0058B
:1029200005050600012000F8002005080806000043
:1029300040F0C88888987810050808060000E0F87C
:102940008888888888F80505050600012030F83059
:10295000200508080600002070F820202020E0054F
:1029600009090600FF2070A8A8B88888502005092A
:10297000090600FFE080C0B0A8A830282805090992
:102980000600FFF8A88888888888A8F8050A0A063B
:1029900000FE205050505088A8A8887000060900FA
:1029A000FE06018902FE20FFFE07FE06FE00000073
:1029B0000600070106060602008080808000800372
:1029C0000303060103A0A0A00507070600FF50505F
:1029D000F850F850500509090600FE2070A8A070B4
:1029E00028A870200608080600FF40A848102048C4
:1029F00054080507070600FF6090906098906801F2
:102A000003030602038080800207070602FF40805E
:102A100080808080400207070602FF8040404040DF
:102A200040800505050600008850F850880505051A
:102A30000600002020F820200204040602FEC04008
:102A40004080050101060002F8020202060200C0F1
:102A5000C00406060601001010204080800406060F
:102A60000601006090909090600306060601004009
:102A7000C0404040E004060606010060901020407F
:102A8000F0040606060100F020601010E0050606BE
:102A900006000010305090F810040606060100F001
:102AA00080E01010E00406060601006080E09090CF
:102AB00060040606060100F01010204040040606DF
:102AC00006010060906090906004060606010060B8
:102AD0009090701060020505060200C0C000C0C0E2
:102AE0000207070602FEC0C000C040408005050581
:102AF0000600001860806018050303060001F80056
:102B0000F8050505060000C0300830C004070706B8
:102B1000010060901060400040050606060000704D
:102B200090A8B08070050606060000205088F8883E
:102B300088050606060000F088F08888F00406067E
:102B4000060100609080809060040606060100E0A7
:102B500090909090E0040606060100F080E08080EE
:102B6000F0040606060100F080E08080800406067E
:102B7000060100609080B090600406060601009097
:102B800090F0909090030606060100E0404040401F
:102B9000E0050606060000381010109060040606D6
:102BA00006010090A0C0A0909004060606010080D7
:102BB00080808080F005060606000088D8A8A888D6
:102BC0008804060606010090D0B090909005060695
:102BD000060000708888888870040606060100E0F8
:102BE0009090E080800407070601FF609090D0B0CD
:102BF0006010040606060100E09090E09090040644
:102C00000606010060904020906005060606000060
:102C1000F8202020202004060606010090909090C5
:102C20009060040606060100909090F06060050632
:102C3000060600008888A8A8D888050606060000B1
:102C400088502020508805060606000088885020FD
:102C50002020040606060100F010204080F0030644
:102C600006060100E080808080E004060606010080
:102C7000808040201010030606060100E02020207E
:102C800020E005030306000320508805010106002B
:102C9000FEF8020202060204804004040406010059
:102CA000709090700406060601008080E09090E02D
:102CB000040404060100708080700406060601000A
:102CC00010107090907004040406010060B0C07091
:102CD000040606060100205040E0404004060606B7
:102CE00001FE60909070106004060606010080806E
:102CF000E09090900306060601004000C04040E0CE
:102D00000308080601FE200060202020A0400406E1
:102D1000060601008080A0C0A09003060606010000
:102D2000C040404040E0050404060000D0A8A88848
:102D3000040404060100E0909090040404060100DD
:102D4000609090600406060601FEE09090E08080AE
:102D50000406060601FE709090701010040404062C
:102D60000100A0D0808004040406010070C030E09F
:102D70000406060601004040E0405020040404061A
:102D8000010090909070040404060100909060602F
:102D900005040406000088A8A850040404060100E5
:102DA000906060900406060601FE9090907090601E
:102DB000040404060100F02040F0030707060100A8
:102DC000204040804040200107070602FF808080AD
:102DD000808080800307070601008040402040403B
:102DE0008004020206010350A0FFFFFFFFFFFFFF68
:102DF000FFFFFFFFFFFFFFFFFFFFFFFFFFFFFFFFE3
:102E0000FFFFFFFFFFFFFFFFFFFF000000060007BF
:102E10000106060602008000808080800406060607
:102E200001FF2070A0A070200507070600FF3048B2
:102E300040F04040F8050505060000A8508850A85D
:102E40000506060600008850F820F820010707064E
:102E500002FF808080008080800407070601FF70E9
:102E60008060906010E0030101060105A0060707DD
:102E7000060000788494A494847803050506010173
:102E800060A06000E00505050600002850A050285D
:102E9000040303060100F01010040101060102F012
:102EA0000607070600007884B4A4A484780401010E
:102EB000060105F0040303060102609060050707A0
:102EC0000600FF2020F8202000F803050506010178
:102ED00040A02040E0030505060101C0204020C0BD
:102EE00002020206020440800405050601FF9090DC
:102EF000B0D08005060606000078E8E868282801BA
:102F00000101060202800202020602FE4080030561
:102F10000506010140C04040E003050506010140EF
:102F2000A04000E0050505060000A0502850A005BF
:102F300008080600FF40C0405070307810050808AF
:102F40000600FF40C0405068081038050808060019
:102F5000FFC0204030F03078100407070601002041
:102F60000020608090600507070600004020205088
:102F70007088880507070600001020205070888898
:102F800005070706000020502050708888050707B5
:102F900006000028502050708888050707060000AA
:102FA0005000205070888805070706000020502038
:102FB0005070888805060606000078A0F0A0A0B82A
:102FC0000408080601FE609080809060204004079D
:102FD000070601004020F080E080F00407070601AA
:102FE000002040F080E080F0040707060100205038
:102FF000F080E080F00407070601005000F080E058
:1030000080F00307070601008040E0404040E003F5
:1030100007070601002040E0404040E003070706A4
:10302000010040A0E0404040E0030707060100A087
:1030300000E0404040E00506060600007048E84811
:10304000487004070706010050A090D0B09090048B
:103050000707060100402060909090600407070673
:103060000100204060909090600407070601002056
:1030700050609090906004070706010050A0609097
:1030800090906004070706010050006090909060E7
:103090000505050600008850205088040808060130
:1030A000FF1070B0B0D0D0E08004070706010040E8
:1030B00020909090906004070706010020409090B7
:1030C0009090600407070601002050909090906057
:1030D00004070706010050009090909060050707D4
:1030E000060000102088502020200406060601005B
:1030F00080E09090E0800406060601006090A0A0A9
:1031000090A0040707060100402000709090700412
:103110000707060100204000709090700407070622
:1031200001002050007090907004070706010050C5
:10313000A000709090700406060601005000709088
:1031400090700407070601002050207090907005D1
:10315000040406000070A8B0780406060601FE709C
:10316000808070204004070706010040200060B006
:10317000C07004070706010020400060B0C0700462
:10318000070706010020500060B0C0700406060664
:103190000100500060B0C0700307070601008040C6
:1031A00000C04040E0030707060100204000C04087
:1031B00040E003070706010040A000C04040E003D4
:1031C0000606060100A000C04040E0040707060113
:1031D000003060107090906004070706010050A056
:1031E00000E09090900407070601004020006090E6
:1031F0009060040707060100204000609090600482
:103200000707060100205000609090600407070641
:10321000010050A000609090600406060601005076
:1032200000609090600505050600002000F8002071
:1032300004040406010070B0D0E004070706010092
:103240004020009090907004070706010020400085
:103250009090907004070706010020500090909015
:103260007004060606010050009090907004090951
:103270000601FE20400090909070906004080806BF
:1032800001FE8080E09090E080800408080601FE46
:1032900050009090907090600000000000000000CE
:1032A000000000007FFFE0000000000000000000C0
:1032B0000000007000E000000000000000000000BE
:1032C000000061F860000000000000000000000045
:1032D0000041F82000000000000000000000000095
:1032E00040F020000000000000000000000000404E
:1032F00060200000000000000000000000005801F5
:10330000A07F80000000000000004104005C63A07A
:10331000FFC0000000000000002082005EF7A0FF58
:10332000C0000000000000002082005EF7A0FFC087
:10333000000000000000004104005C63A07F8000EA
:103340000000000000008208005801A07F800000FB
:103350000000000001041000406020FFC0000000D9
:103360000000000104100040F020FFC00000000039
:1033700000000082080041F820FFC00000000000AB
:10338000000041040061F8603F0000000000000000
:10339000000000007000E01E0000000000000001BE
:1033A000FFFF807FFFE00C0000000000000001FF35
:1033B000FF8000000000000000000000000000008E
:1033C000007FFFE00000000000000000000000009F
:1033D0007000E0000000000000000000000000633A
:1033E0000C60000000000000000000000000470E1C
:1033F000200000000000000000000000004F0F202F
:103400000000000000000000000000005F0FA000AE
:1034100000000000000000000000005E07A07F80A8
:1034200000000000000000410400406020FFC000D8
:1034300000000000000020820040F020FFC00000DB
:10344000000000000020820040F020FFC0000000CB
:10345000000000004104004060207F800000000068
:103460000000008208005E07A07F800000000000CE
:1034700000010410005F0FA0FFC00000000000006A
:10348000010410004F0F20FFC000000000000000EA
:10349000820800470E20FFC000000000000000412D
:1034A0000400630C603F000000000000000000000A
:1034B000007000E01E0000000000000001FFFF801F
:1034C0007FFFE00C0000000000000001FFFF800013
:1034D00000000000000000000000000000000000EC
:1034E00000000000000000000000000000000000DC
:1034F00000000000000000000000000000000000CC
:10350000000000000003C00000000000003FFE00BB
:103510000000000001FFFF800000000007FFFFE047
:10352000000000000FFFFFF0000000001FFFFFF889
:10353000000000003FFFFFFC000000007FFFFFFED7
:1035400000000000FFFFFFFF00000001FFFFFFFF82
:1035500080000001FFFFFFFF80000003FFFFFFFF6F
:10356000C0000003FF8001FFC0000007F800000F4B
:10357000E0000007C0000003E000000700000000BA
:10358000F000000E000000003000000C0000000001
:1035900010000018000000001800003800000000B3
:1035A0000C000070000000000E0000700000000021
:1035B0000F0000F0000000000F0001F0000000000C
:1035C0000F8001F0000000000F8003F000000000F9
:1035D0000FC003F8000000001FC007F80000000043
:1035E0001FE007F8000000001FE007F800000000DF
:1035F0001FE007FC000000003FE007FC00000000A7
:103600003FF007FE000000007FF007FE0000000012
:103610007FF007FF000000007FF007FF00000000C0
:10362000FFF007FF80000000FFE007FF80000001BF
:10363000FFE007FFC0000003FFE007FFC00000033A
:10364000FFE003FFE0000007FFC003FFF000000FF2
:10365000FFC001FFF000000FFFC001FFF800001FD6
:10366000FF8000FFFC00003FFF0000FFFE00007F26
:10367000FF00007FFF0000FFFE00003FFF8001FF12
:10368000FC00001FFFC003FFF800000FFFE007FF72
:10369000F0000003FFF81FFFC0000000FFFFFFFF66
:1036A000000000003FFFFFFC0000000001C003809D
:1036B000000000000000000000000000000000000A
:1036C00000000000000000000000000000000000FA
:1036D000000000091200FC0A01E803D720FFFD0EDC
:1036E000FD0BFD00000009000E010B0B090400801A
:1036F00080808080808000008080040404090307AB
:1037000090909090080A0A090000242424FF2424A1
:10371000FF242424070B0B0901FF107C92905038E2
:103720001412927C10070A0A09010042A4A448104E
:1037300010244A4A84070A0A0901006090909060A8
:1037400062948894620104040904078080808003E5
:103750000C0C0903FF204040808080808080404026
:1037600020030C0C0903FF80404020202020202053
:103770004040800707070901031092543854921003
:10378000070707090101101010FE101010020404B1
:103790000904FEC0C04080070101090104FE0202C5
:1037A00002090400C0C0070A0A0901000204040853
:1037B000101020404080070A0A0901003844828224
:1037C000828282824438070A0A0901001030509030
:1037D0001010101010FE070A0A0901003844820276
:1037E0000408102040FE070A0A090100FE0204082E
:1037F000180402028478070A0A090100040C142440
:103800004484FE040404070A0A090100FE80808043
:10381000F80402028478070A0A0901003C4080800B
:10382000B8C482824438070A0A090100FE0204046F
:10383000080810101010070A0A09010038448244D1
:10384000384482824438070A0A09010038448282D7
:10385000463A02020478020707090400C0C00000CB
:1038600000C0C00209090904FEC0C0000000C0C0B9
:1038700040800509090902000810204080402010FE
:1038800008070404090102FE0000FE0509090902F7
:1038900000804020100810204080070A0A0901001B
:1038A00038448202040810100010070A0A090100B7
:1038B00038449AAAAAAAAA9C403C070A0A0901000D
:1038C00010282828447C44828282070A0A090100C1
:1038D000F8848284F884828284F8070A0A09010045
:1038E0003C42808080808080423C070A0A090100B7
:1038F000F88482828282828284F8070A0A0901009F
:10390000FE808080F880808080FE070A0A0901001E
:10391000FE808080F88080808080070A0A0901008C
:1039200038448280808E82824438070A0A09010066
:1039300082828282FE8282828282050A0A090200D3
:10394000F82020202020202020F8070A0A09010062
:103950003E080808080808888870070A0A09010054
:1039600082848890A0D088848282070A0A09010094
:10397000808080808080808080FE070A0A090100A4
:103980008282C6AA928282828282070A0A09010082
:103990008282C2A2928A86828282070A0A09010072
:1039A0007C82828282828282827C070A0A090100EA
:1039B000F884828284F880808080080B0B0901FFE4
:1039C000384482828282828A443A01070A0A0901C3
:1039D00000F884828284F890888482070A0A0901A8
:1039E000007C8280807C020202827C070A0A090134
:1039F00000FE101010101010101010070A0A090114
:103A00000082828282828282824438070A0A090105
:103A10000082828244444428282810070A0A0901A7
:103A2000008282828292929292AA44070A0A090133
:103A30000082824428101028448282070A0A090161
:103A40000082824428101010101010070A0A090181
:103A500000FE0204081020408080FE040C0C0903C4
:103A6000FFF080808080808080808080F0070A0A5C
:103A700009010080404020101008040402040C0CCE
:103A80000902FFF010101010101010101010F007A5
:103A90000404090106102844820801010900FFFFFF
:103AA00003030309030A8040200707070901007C7C
:103AB00002027E82867A070A0A090100808080BCA1
:103AC000C2828282C2BC0707070901007C82808013
:103AD00080827C070A0A0901000202027A86828239
:103AE00082867A0707070901007C8282FE80827C39
:103AF000070A0A0901001C22222020F82020202089
:103B0000070A0A0901FD7A84848478807C82827C99
:103B1000070A0A090100808080BCC28282828282F8
:103B2000050A0A090200600000E02020202020F899
:103B3000050D0D0902FD18000038080808080808DE
:103B4000888870070A0A090100808080848890B004
:103B5000C88482050A0A090200E0202020202020D3
:103B60002020F8070707090100EC929292929282B6
:103B7000070707090100BCC2828282828207070709
:103B80000901007C82828282827C070A0A0901FD87
:103B9000B8C4828282C4B8808080070A0A0901FD05
:103BA0003A46828282463A0202020707070901006A
:103BB0009C6242404040400707070901007C828028
:103BC0007C02827C0709090901002020FC202020BA
:103BD00020221C0707070901008282828282867ADE
:103BE00007070709010082824444282810070707B5
:103BF0000901008282929292AA44070707090100F4
:103C000082442810284482070A0A0901FD424224FE
:103C100024241818109060070707090100FE040803
:103C2000102040FE060B0B0902001C20202020C0A3
:103C3000202020201C010C0C0904FF808080808043
:103C400080808080808080060B0B090100E01010CE
:103C500010100C10101010E0070303090107629206
:103C60008CFFFFFFFFFFFFFFFFFFFFFFFFFFFFFFD7
:103C7000FFFFFFFFFFFFFFFFFFFFFFFFFFFFFFFF54
:103C8000FFFF00000009000E010B0B0904008080FB
:103C9000000080808080808080060808090100087C
:103CA000789490A0A47840070A0A0901001C2220F9
:103CB00020F8202060A25C070606090103827C44EC
:103CC000447C82070A0A090100828244287C107C15
:103CD000101010010B0B0904FF8080808080008091
:103CE00080808080040B0B0902FF609080609090C0
:103CF000906010906003020209030BA0A00809095C
:103D00000900013C4299A5A1A599423C0507070974
:103D10000103609070907800F8070808090101120B
:103D200024489090482412060404090102FC04046B
:103D300004050101090204F80809090900013C42CF
:103D4000B9A5BDA9A5423C060101090109FC04046D
:103D50000409030660909060070909090101101029
:103D600010FE10101000FE040606090104609010F9
:103D70006080F00406060901046090201090600342
:103D8000030309030A2040800709090901FE828212
:103D9000828282C6BA8080070A0A0901007E8A8A66
:103DA0008A7A0A0A0A0A0A020202090404C0C00442
:103DB00003030902FD20906003060609010440C0C8
:103DC000404040E00506060901047088887000F84C
:103DD0000708080901019048241212244890070A94
:103DE0000A09010040C0404042E60A121A06070ACA
:103DF0000A09010040C040404CF2020C101E070AA4
:103E00000A0901006090201092660A121A06070A39
:103E10000A0901001000101020408082827C070EE9
:103E20000E0901002010080010282828447C448234
:103E30008282070E0E090100081020001028282891
:103E4000447C44828282070E0E090100102844003F
:103E500010282828447C44828282070D0D09010025
:103E600034580010282828447C44828282070D0D93
:103E700009010028280010282828447C44828282D6
:103E8000070E0E0901001028281010282828447C4D
:103E900044828282070A0A0901001E2828284E78D7
:103EA0004888888E070D0D0901FD3C428080808086
:103EB0008080423C082418070E0E090100201008DB
:103EC00000FE808080F880808080FE070E0E090151
:103ED0000008102000FE808080F880808080FE072F
:103EE0000E0E09010010284400FE808080F88080BA
:103EF0008080FE070D0D090100282800FE808080CB
:103F0000F880808080FE050E0E090200402010001F
:103F1000F82020202020202020F8050E0E09020085
:103F200010204000F82020202020202020F8050E1E
:103F30000E09020020508800F82020202020202098
:103F400020F8050D0D090200505000F82020202017
:103F500020202020F8070A0A09010078444242F292
:103F60004242424478070D0D090100345800828214
:103F7000C2A2928A86828282070E0E090100201058
:103F800008007C82828282828282827C070E0E09F5
:103F90000100081020007C82828282828282827CE0
:103FA000070E0E090100102844007C828282828262
:103FB0008282827C070D0D0901003458007C8282C8
:103FC0008282828282827C070D0D090100282800EE
:103FD0007C82828282828282827C070707090101B9
:103FE00082442810284482070C0C0901FF027C86B9
:103FF0008A8A9292A2A2C27C80070E0E090100203A
:1040000010080082828282828282824438070E0EE9
:10401000090100081020008282828282828282440A
:1040200038070E0E09010010284400828282828225
:104030008282824438070D0D0901002828008282FF
:104040008282828282824438070E0E0901000810A3
:10405000200082824428101010101010070A0A094C
:1040600001008080FC828282FC808080060A0A092E
:10407000010038444448D04844444458070B0B09D5
:104080000100201008007C02027E82867A070B0B5A
:10409000090100081020007C02027E82867A070B4C
:1040A0000B090100102844007C02027E82867A07F8
:1040B0000A0A0901003458007C02027E82867A07CF
:1040C0000A0A0901002828007C02027E82867A07FB
:1040D0000C0C09010010282810007C02027E828648
:1040E0007A0707070901006C12127E90926C070A8A
:1040F0000A0901FD7C82808080827C104830070B99
:104100000B090100201008007C8282FE80827C075F
:104110000B0B090100081020007C8282FE80827C4B
:10412000070B0B090100102844007C8282FE80826C
:104130007C070A0A0901002828007C8282FE80820E
:104140007C050C0C0902008040200000E0202020AB
:104150002020F8050C0C0902001020400000E0208F
:1041600020202020F8050C0C0902002050880000B7
:10417000E02020202020F8050B0B09020050500001
:1041800000E02020202020F8070B0B090100483018
:1041900050083C448282824438070A0A09010034EC
:1041A0005800BCC28282828282070B0B0901002068
:1041B0001008007C82828282827C070B0B0901003E
:1041C000081020007C82828282827C070B0B09010E
:1041D00000102844007C82828282827C070A0A09BD
:1041E00001003458007C82828282827C070A0A099C
:1041F00001002828007C82828282827C07090909CA
:10420000010010381000FE001038100709090901DC
:10421000FF027C8A8A92A2A27C80070B0B09010014
:10422000402010008282828282867A070B0B09016D
:1042300000081020008282828282867A070B0B0996
:104240000100102844008282828282867A070A0A4C
:104250000901002828008282828282867A070E0E57
:104260000901FD040810004242242424181810906B
:1042700060070B0B0901FE8080B8C4828282C4B83B
:104280008080070D0D0901FD2424004242242424CE
:10429000181810906001050800FF06012102352062
:1042A000FFFF07FF06FF090050221656808080801E
:1042B0000080153353A0A0A00257575050F850F873
:1042C00050500257572070A0702870201335558029
:1042D000A040A02002475740A0A040A0A050251316
:1042E000538080801226564080808080401226565F
:1042F0008040404040800245559060F060900255FB
:10430000552020F82020113353604080044151F0A3
:1043100011335340E0400246561010204080801276
:10432000365640A0A0A0A04012365640C0404040A3
:10433000E00246566090106080F0024656F0206021
:104340001090600246562060A0F02020024656F0F1
:1043500080E01090600246566080E09090600246D7
:1043600056F01020204040024656609060909060C9
:10437000024656609090701060122555C0C000C073
:10438000C011365660600060408012365620408072
:10439000804020034353F000F01236568040202026
:1043A000408012365640A020400040015858304806
:1043B00098A8A8904030024656609090F0909002E5
:1043C0004656E090E09090E00246566090808090E3
:1043D00060024656E090909090E0024656F080E0F1
:1043E0008080F0024656F080E08080800246566071
:1043F0009080B090600246569090F0909090123667
:1044000056E040404040E002465670202020A04048
:1044100002465690A0C0A0A09002465680808080A0
:1044200080F002465690F0F090909002465690D060
:10443000F0B0B09002465660909090906002465660
:10444000E09090E08080014757609090D0B060107D
:10445000024656E09090E0909002465660904020D0
:104460009060123656E040404040400246569090E0
:1044700090909060024656909090906060024656F0
:10448000909090F0F090024656909060609090026C
:104490005656888850202020024656F01020408032
:1044A000F0123656E080808080E0024656808040E0
:1044B000201010123656E020202020E01632524004
:1044C000A0014151F0162252804002445470909055
:1044D000700246568080E09090E0123454608080F4
:1044E0006002465610107090907002445460B0C044
:1044F00060024656205040E04040014555609070B3
:1045000010600246568080E090909012365640002F
:10451000C04040E01137572000202020A040024634
:1045200056808090E09090123656C040404040E067
:10453000025454D0A8A8A8024454E0909090024499
:104540005460909060014555E090E08080014555B1
:104550007090701010024454A0D0808012345460C7
:10456000C020C00246564040E040502002445490D3
:10457000909070123454A0A0A04002545488A8A86F
:104580005002445490606090014555909070906046
:10459000024454F02040F0024757304020C02040F1
:1045A00030221656808080808080024757C020408D
:1045B000304020C006425250A0FFFFFFFFFFFFFF28
:1045C000FFFFFFFFFFFFFFFFFFFFFFFFFFFFFFFFFB
:1045D000FFFFFFFFFFFFFFFFFFFF090050221656FE
:1045E0008000808080800146562070A0A07020024C
:1045F00046562050E04050A00255558870507088B3
:104600000256568850F820F82022175780808000E4
:104610008080800247577080E0907010E017315121
:10462000A002565670A8C8C8A87014355560A0607E
:1046300000E003435350A050123353E020201431C4
:1046400051E002565670E8D8E8D870173151E0159D
:10465000335340A04012355540E04000E01435553A
:1046600040A02040E0143555C020C020C016225282
:104670004080014555909090E08002565678E8E8D9
:104680006828282411518011225240801435554049
:10469000C04040E014355540A04000E0034353A023
:1046A00050A0024757808080A060F02002475780CA
:1046B00080A0D010207002475780408060A0F0207A
:1046C00012365640004080A040024757402060907C
:1046D000F0909002475720406090F090900247572A
:1046E00060906090F0909002475750A06090F090DA
:1046F0009002475790006090F0909002475760906A
:104700006090F0909002465670A0A0F0A0B00147D3
:1047100057609080809060400247574020F080E0D2
:1047200080F00247572040F080E080F00247576059
:1047300090F080E080F00247579000F080E080F039
:104740001237578040E0404040E01237572040E0A9
:10475000404040E012375740A0E0404040E0123770
:1047600057A000E0404040E00256567048E84848F4
:104770007002475750A090D0B09090024757402009
:104780006090909060024757204060909090600247
:1047900047576090609090906002475750A060909B
:1047A0009090600247579000609090906012335351
:1047B000A040A002465670B0B0D0D0E002475740AB
:1047C0002090909090600247572040909090906089
:1047D00002475760909090909060024757900090E9
:1047E0009090906002575710208850202020024659
:1047F0005680E09090E0800246566090A0A090A085
:1048000002475740200070909070024757204000A8
:10481000709090700247572050007090907002473F
:104820005750A000709090700246565000709090C3
:104830007002475760906070909070025454F06816
:10484000B0781135556080806040024757402000A5
:1048500060B0C06002475720400060B0C0600247AF
:104860005760900060B0C060024656500060B0C013
:1048700060123757804000C04040E0123757204058
:1048800000C04040E012375740A000C04040E01256
:104890003656A000C04040E0024757A040A010702C
:1048A000906002475750A000E09090900247574018
:1048B0002000609090600247572040006090906018
:1048C0000247576090006090906002475750A000E8
:1048D000609090600246569000609090601235554E
:1048E0004000E0004002445470B0D0E0024757401E
:1048F0002000909090700247572040009090907058
:104900000247576090009090907002465690009039
:10491000909070014858204000909070906001473E
:10492000578080E090E08080014757900090907021
:10493000906000000A0B02090C0D0E080703040129
:104940000000000000000000000000000000000067
:104950000000000000000000000000000000121134
:104960001000000000000000000000000000000037
:1049700000000000000000000102102020080810C4
:1049800020401020408002010201080402010102BF
:104990000408102040808040201008040201800498
:1049A00002018040201008040201080402010102F3
:1049B00004081020408001020408102040800505F2
:1049C0000505070508080808020202020A0A080885
:1049D00004040404010101010101010103030303B3
:1049E00003030303040707070C0C0C0C0C0C0C0C42
:1049F0000202020206060606060606060B0B0B0B53
:104A00000B0B0B0B000020002300260029002C00BC
:104A10002F0032000001000003010601090100001F
:104A20002200250028002B002E0031003400020156
:104A30000000050108010B010000210024002700EF
:104A40002A002D003000330001010000040107019D
:104A50000A01024E414E494E495459494E46CDCC69
:104A6000CC3D0AD7233C17B7D13877CC2B3295955C
:104A7000E6241FB14F0A000020410000C842004058
:104A80001C4620BCBE4CCA1B0E5AAEC59D74545762
:104A9000B1E8585711241FBECFEFD1E2DEBFCDBF22
:104AA00000E00CBF14E0A0E0B2E0E2E5F1E002E0DB
:104AB0000BBF02C007900D92AE3EB107D9F724E1BB
:104AC000AEEEB4E001C01D92AF3DB207E1F71AE4CB
:104AD000C2E9DAE400E006C022970109FE010BBF3B
:104AE0000E944CFACE38D10780E00807A9F70E944F
:104AF00030F50D9498000C940000EF92FF920F9304
:104B00001F93CF93DF931F92CDB7DEB78C017B014C
:104B1000460FF70161917F01F801808191814983FE
:104B20000E94E1FFF8018081918101969183808349
:104B300049814E11EECF0F90DF91CF911F910F91D0
:104B4000FF90EF900895EF92FF920F931F93CF93F2
:104B5000DF931F92CDB7DEB78C017B01460FF801C2
:104B60008081918149830E94D9FFF70181937F0160
:104B7000F8018081918101969183808349814E1152
:104B8000EECF0F90DF91CF911F910F91FF90EF909B
:104B900008950F931F93CF93DF93CDB7DEB72A9776
:104BA0000FB6F894DEBF0FBECDBF80E390E3A0E365
:104BB000B0E08D839E83AF83B88704E610E01A8748
:104BC000098744E0BE016B5F7F4FCE01099695DFF8
:104BD00040E167E571E1CE0109968FDF40E167E6CC
:104BE00071E1CE01099689DF40E167E471E1CE0110
:104BF000099683DF44E06FE371E1CE0109967DDF22
:104C000044E06BE371E1CE01099677DF44E063E4B1
:104C100071E1CE01099671DF44E06BE271E1CE01F2
:104C200009966BDF44E067E771E1CE01099665DF25
:104C300044E067E371E1CE0109965FDF44E063E39E
:104C400071E1CE01099659DF44E06FE271E1CE01D6
:104C5000099653DF4CE06BE577E0CE0109964DDF16
:104C600042E062EA74E1CE01099647DF42E060EA81
:104C700074E1CE01099641DF42E06EE974E1CE01B4
:104C800009963BDF42E06CE974E1CE01099635DF1D
:104C900042E06AE974E1CE0109962FDF42E068E95B
:104CA00074E1CE01099629DF44E064E577E0CE01A6
:104CB000099623DF44E066E872E0CE0109961DDF25
:104CC00044E062E872E0CE01099617DF44E06EE747
:104CD00072E0CE01099611DF42E065E972E1CE0192
:104CE00009960BDF41E060E577E0CE01099605DF2C
:104CF00044E065E272E0CE010996FFDE44E06DE13A
:104D000072E0CE010996F9DE44E06BE477E0CE0173
:104D10000996F3DE44E069E172E0CE010996EDDE2A
:104D200044E061E172E0CE010996E7DE41E067E729
:104D300077E0CE010996E1DE44E065E472E0CE0161
:104D40000996DBDE86E591E3A3E3B0E089839A83ED
:104D5000AB83BC831A87098744E0BE016F5F7F4F36
:104D6000CE010996CADEE0EBFAE08491882341F097
:104D70009091C00095FFFCCF8093C6003196F5CF8F
:104D8000ECEAF4E08491882341F09091C00095FF13
:104D9000FCCF8093C6003196F5CF8091C00085FF8F
:104DA000FCCF8AE08093C6002A960FB6F894DEBF47
:104DB0000FBECDBFDF91CF911F910F910895CF937B
:104DC000DF93C0EBDAE0FE018491882341F09091FB
:104DD000C00095FFFCCF8093C6003196F5CFECE97B
:104DE000F4E08491882341F09091C00095FFFCCFBE
:104DF0008093C6003196F5CF8091C00085FFFCCF2F
:104E00008AE08093C600FE018491E0EBFAE08823FB
:104E100049F09091C00095FFFCCF8093C600319679
:104E20008491F5CF409157115091581160915911CB
:104E300070915A1184E994E00E94643140915B11B1
:104E400050915C1160915D1170915E1181E994E067
:104E50000E94643140915F11509160116091611125
:104E6000709162118EE894E00E9464314091631168
:104E70005091641160916511709166118BE894E016
:104E80000E9464318091C00085FFFCCF8AE080934E
:104E9000C600FE018491E0EBFAE0882349F090918E
:104EA000C00095FFFCCF8093C60031968491F5CF6A
:104EB000E1E7F4E08491882341F09091C00095FFF0
:104EC000FCCF8093C6003196F5CF8091C00085FF5E
:104ED000FCCF8AE08093C600FE018491E0EBFAE00B
:104EE000882349F09091C00095FFFCCF8093C600C5
:104EF00031968491F5CF409167115091681160917E
:104F0000691170916A1188E694E00E9464314091C1
:104F10006B1150916C1160916D1170916E1185E65D
:104F200094E00E94643140916F1150917011609132
:104F300071117091721182E694E00E946431409187
:104F400073115091741160917511709176118FE504
:104F500094E00E9464318091C00085FFFCCF8AE01C
:104F60008093C600FE018491E0EBFAE0882349F0CB
:104F70009091C00095FFFCCF8093C600319684913C
:104F8000F5CFE1E4F4E08491882341F09091C000F2
:104F900095FFFCCF8093C6003196F5CF8091C0007D
:104FA00085FFFCCF8AE08093C600FE018491E0EB90
:104FB000FAE0882349F09091C00095FFFCCF8093E0
:104FC000C60031968491F5CF409147115091481118
:104FD0006091491170914A1188E394E00E94753103
:104FE00040914B1150914C1160914D1170914E11A7
:104FF00085E394E00E94753140914F11509150111A
:10500000609151117091521182E394E00E947531C8
:105010004091531150915411609155117091561156
:105020008FE294E00E9475318091C00085FFFCCF33
:105030008AE08093C600FE018491E0EBFAE08823C9
:1050400049F09091C00095FFFCCF8093C600319647
:105050008491F5CFEAEFF3E08491882341F09091B9
:10506000C00095FFFCCF8093C6003196F5CF8091AC
:10507000C00085FFFCCF8AE08093C600FE018491CA
:10508000E0EBFAE0882349F09091C00095FFFCCF57
:105090008093C60031968491F5CF40913F11509195
:1050A0004011609141117091421181EF93E00E9493
:1050B000643140913B1150913C1160913D117091D0
:1050C0003E118EEE93E00E9464318091C00085FF16
:1050D000FCCF8AE08093C600FE018491E0EBFAE009
:1050E000882349F09091C00095FFFCCF8093C600C3
:1050F00031968491F5CFEBE3F3E08491882341F07E
:105100009091C00095FFFCCF8093C6003196F5CFFB
:105110008091C00085FFFCCF8AE08093C600FE012D
:105120008491E0EBFAE0882349F09091C00095FF6C
:10513000FCCF8093C60031968491F5CF4091431106
:1051400050914411609145117091461182E393E0B2
:105150000E94643140912B1150912C1160912D11BE
:1051600070912E118FE293E00E946431409177118B
:10517000509178116091791170917A118CE293E0DD
:105180000E94753140913711509138116091391159
:1051900070913A1189E293E00E9464314091331199
:1051A00050913411609135117091361186E293E07F
:1051B0000E94643140912F11509130116091311152
:1051C0007091321183E293E00E9464318091C000BB
:1051D00085FFFCCF8AE08093C600FE018491E0EB5E
:1051E000FAE0882349F09091C00095FFFCCF8093AE
:1051F000C60031968491F5CFE1E1F3E084918823F4
:1052000041F09091C00095FFFCCF8093C60031968D
:10521000F5CF8091C00085FFFCCF8AE08093C60067
:10522000FE018491E0EBFAE0882349F09091C00000
:1052300095FFFCCF8093C60031968491F5CF4091C5
:105240005B0750915C0760915D0770915E0788E095
:1052500093E00E94643140915F0750916007609134
:1052600061077091620785E093E00E94643140918C
:10527000630750916407609165077091660782E04B
:1052800093E00E9464318091C00085FFFCCF8AE0EA
:105290008093C600FE018491E0EBFAE0882349F098
:1052A0009091C00095FFFCCF8093C6003196849109
:1052B000F5CFE4EFF2E08491882341F09091C000B3
:1052C00095FFFCCF8093C6003196F5CF8091C0004A
:1052D00085FFFCCF8AE08093C600FE018491E0EB5D
:1052E000FAE0882349F09091C00095FFFCCF8093AD
:1052F000C60031968491F5CF409186025091870285
:1053000060918802709189028AEE92E0DDD7609107
:1053100082027091830280918402909185020E94A2
:10532000529AAB01BC0187EE92E0CED760917E022B
:1053300070917F0280918002909181020E945E9A1A
:10534000AB01BC0184EE92E0BFD78091C00085FF25
:10535000FCCF8AE08093C600FE018491E0EBFAE086
:10536000882349F09091C00095FFFCCF8093C60040
:1053700031968491F5CFE0EBF2E08491882341F0FF
:105380009091C00095FFFCCF8093C6003196F5CF79
:105390008091C00085FFFCCF8AE08093C600FE01AB
:1053A0008491E0EBFAE0882349F09091C00095FFEA
:1053B000FCCF8093C60031968491F5CF40912502B1
:1053C00050912602609127027091280286EA92E0AD
:1053D0007BD720E030E040E752E460911D027091FD
:1053E0001E0280911F02909120020E94EDF8AB01F5
:1053F000BC0183EA92E068D740914B0750914C077B
:1054000060914D0770914E0780EA92E05DD78091E0
:10541000C00085FFFCCF8AE08093C600FE01849126
:10542000E0EBFAE0882349F09091C00095FFFCCFB3
:105430008093C60031968491F5CFE4E7F2E0849141
:10544000882341F09091C00095FFFCCF8093C60067
:105450003196F5CF8091C00085FFFCCF8AE0809324
:10546000C600FE018491E0EBFAE0882349F09091B8
:10547000C00095FFFCCF8093C60031968491F5CF94
:105480004091190250911A0260911B0270911C0206
:105490008AE692E019D720E030E040E752E46091DC
:1054A00011027091120280911302909114020E94D5
:1054B000EDF8AB01BC0187E692E006D78091C00011
:1054C00085FFFCCF8AE08093C600FE018491E0EB6B
:1054D000FAE0882349F09091C00095FFFCCF8093BB
:1054E000C60031968491F5CFEDE0F2E084918823F7
:1054F00041F09091C00095FFFCCF8093C60031969B
:10550000F5CF8091C00085FFFCCF8AE08093C60074
:10551000FE018491E0EBFAE0882349F09091C0000D
:1055200095FFFCCF8093C60031968491F5CF4091D2
:10553000500750E060E070E083E092E0D6D68091C2
:10554000C00085FFFCCF8AE08093C600FE018491F5
:10555000E0EBFAE0882349F09091C00095FFFCCF82
:105560008093C60031968491F5CF80917707882388
:1055700099F1E0EFF1E08491882341F09091C0002F
:1055800095FFFCCF8093C6003196F5CF8091C00087
:1055900085FFFCCF8AE08093C600FE01C491E0EB5A
:1055A000FAE0CC2349F08091C00085FFFCCFC09386
:1055B000C6003196C491F5CF409145025091460204
:1055C000609147027091480286EE91E07DD680910D
:1055D000C00085FFFCCF11C0EAECF1E08491882384
:1055E00041F09091C00095FFFCCF8093C6003196AA
:1055F000F5CF8091C00085FFFCCF8AE08093C60084
:10560000DF91CF910895AF92BF92CF92DF92EF9248
:10561000FF920F931F93CF93DF93CDB7DEB7E09741
:105620000FB6F894DEBF0FBECDBF80E1E1EBF2E034
:10563000DE01919601900D928A95E1F780E1E1EC0F
:10564000F2E0DE01519601900D928A95E1F780E13A
:10565000E1EDF2E0DE01119601900D928A95E1F7FD
:105660006E0181E2C80ED11C87E5E82E81E1F82E9B
:105670008E010F5E1F4F67E671E1AE014F5F5F4F16
:1056800097E4A92E91E1B92E20E030E0F601819156
:105690009191A191B1916F01F70181939193A193A0
:1056A000B1937F01F80181919191A191B1918F0105
:1056B000FB0181939193A193B193BF01FA01819171
:1056C0009191A191B191AF01F50181939193A19332
:1056D000B1935F012F5F3F4F24303105B9F60E942F
:1056E000738680E090E4ACE1B5E480933F11909341
:1056F0004011A0934111B093421180E090ECAAE5D3
:10570000B5E480933B1190933C11A0933D11B0936D
:105710003E111092431110924411109245111092B3
:10572000461180E29EE4A0E0B0E080937711909370
:105730007811A0937911B0937A1110922B111092D5
:105740002C1110922D1110922E1180E090E0A0EA01
:10575000B0E48093371190933811A0933911B0932E
:105760003A114DEC5CEC6CEC7EE3409333115093BA
:105770003411609335117093361180932F119093EB
:105780003011A0933111B09332111092630710922F
:105790006407109265071092660710925F071092D7
:1057A0006007109261071092620710925B071092D7
:1057B0005C0710925D0710925E0784EB90E0909377
:1057C000A3148093A2148CE390E09093A11480938F
:1057D000A01480E890E090939F1480939E142CED89
:1057E00030E030939D1420939C1424E630E03093F5
:1057F0009B1420939A14909399148093981480E2A8
:1058000090E090939612809395128AE999E9A1EB22
:10581000B1E48093860290938702A0938802B093AC
:10582000890261E77DE38AE89FE30E944C9A6093D6
:10583000820270938302809384029093850260E0D9
:1058400070E084EE92E40E94589A60937E02709316
:105850007F0280938002909381020E94F79080E003
:1058600090E0A0E8BFE380937A0290937B02A0933C
:105870007C02B0937D021092500780932502909392
:105880002602A0932702B093280240E050E060EF88
:1058900071E440931D0250931E0260931F027093A7
:1058A000200210924B0710924C0710924D07109255
:1058B0004E078093190290931A02A0931B02B09393
:1058C0001C024093110250931202609313027093D2
:1058D00014021092770780E090E0A0E4B0E4809397
:1058E000450290934602A0934702B09348020E945B
:1058F0008C3EE0EBFAE08491882341F09091C00067
:1059000095FFFCCF8093C6003196F5CFEEE8F1E02D
:105910008491882341F09091C00095FFFCCF809343
:10592000C6003196F5CF8091C00085FFFCCF8AE09C
:105930008093C600E0960FB6F894DEBF0FBECDBFD1
:10594000DF91CF911F910F91FF90EF90DF90CF905B
:10595000BF90AF900895CF93DF93CDB7DEB72A976E
:105960000FB6F894DEBF0FBECDBF84E690E09A87F5
:10597000898786E591E3A3E3B0E089839A83AB83CB
:10598000BC8344E0BE016B5F7F4FCE010996DBD83C
:1059900043E050E0BE016B5F7F4FCE0101960E9455
:1059A000A0FD892B09F0E2C040E167E571E1CE017D
:1059B0000996C9D840E167E671E1CE010996C3D8DE
:1059C00040E167E471E1CE010996BDD80E9473867B
:1059D00044E06FE371E1CE010996B5D844E06BE392
:1059E00071E1CE010996AFD844E063E471E1CE01E4
:1059F0000996A9D844E06BE271E1CE010996A3D8DB
:105A000044E067E771E1CE0109969DD844E067E381
:105A100071E1CE01099697D844E063E371E1CE01CC
:105A2000099691D844E06FE271E1CE0109968BD8D6
:105A30004CE06BE577E0CE01099685D842E062EA5A
:105A400074E1CE0109967FD842E060EA74E1CE01AC
:105A5000099679D842E06EE974E1CE01099673D8CF
:105A600042E06CE974E1CE0109966DD842E06AE942
:105A700074E1CE01099667D842E068E974E1CE018D
:105A8000099661D844E064E577E0CE0109965BD8D9
:105A900044E066E872E0CE01099655D844E062E839
:105AA00072E0CE0109964FD844E06EE772E0CE0175
:105AB000099649D842E065E972E1CE01099643D8DA
:105AC00041E060E577E0CE0109963DD844E065E22B
:105AD00072E0CE01099637D844E06DE172E0CE0164
