:100000000C9449250C947A250C947A250C947A2525
:100010000C947A250C947A250C947A250C947A25E4
:100020000C947A250C947A250C947A250C947A25D4
:100030000C947A250C942DF50C947A250C947A2541
:100040000C947A250C9469870C947A250C947A2563
:100050000C947A250C947A250C9426990C94F3EE42
:100060000C947A250C94C42D0C947A250C947A2542
:100070000C947A250C947A250C947A250C947A2584
:100080000C947A250C947A250C947A250C947A2574
:100090000C947A250C947A250C947A250C947A2564
:1000A0000C947A250C947A250C947A250C947A2554
:1000B0000C947A250C947A250C947A250C947A2544
:1000C0000C947A250C947A250C947A250C947A2534
:1000D0000C947A250C947A250C947A250C947A2524
:1000E0000C947A2584999399AF99BE99D899E799F8
:1000F000019A059A079A0B9A139A29F02EF033F079
:100100003DF047F0C0F051F059F061F06BF075F040
:100110007FF08EF098F0C0F0A2F0ACF0B6F0E2F014
:10012000E5F0D4F0D8F0DEF01CF1E9F0EDF0F3F0FA
:10013000F7F0FBF001F105F109F11CF10FF113F1FA
:1001400017F1084AD73B3BCE016E84BCBFFDC12FDF
:100150003D6C74319ABD56833DDA3D00C77F11BEB8
:10016000D9E4BB4C3E916BAAAABE000000803F05BB
:10017000A84CCDB2D44EB93836A9020C50B99186EC
:1001800088083CA6AAAA2ABE000000803F00486159
:100190007264636F6465642044656661756C742085
:1001A00053657474696E6773204C6F616465640095
:1001B00053746F7265642073657474696E6773201D
:1001C0007265747269657665640046696C616D6517
:1001D0006E742073657474696E67733A2044697332
:1001E00061626C6564002020204D32303020440074
:1001F00046696C616D656E742073657474696E67B1
:10020000733A002020204D3230392053004175745C
:100210006F2D526574726163743A20533D302074BF
:100220006F2064697361626C652C203120746F20CB
:10023000696E746572707265742065787472756425
:10024000652D6F6E6C79206D6F76657320617320FC
:100250007265747261637473206F72207265636F6C
:10026000766572696573002046002020204D32308B
:10027000382053005265636F7665723A20533D45CE
:1002800078747261206C656E67746820286D6D29C2
:1002900020463A537065656420286D6D2F6D2900E6
:1002A000205A002046002020204D323037205300B5
:1002B000526574726163743A20533D4C656E677485
:1002C0006820286D6D2920463A53706565642028A2
:1002D0006D6D2F6D29205A3A205A4C69667420287A
:1002E0006D6D29002044002049002020204D33302E
:1002F000312050005049442073657474696E6773EF
:100300003A00205A0020590020204D323036205823
:1003100000486F6D65206F666673657420286D6D8B
:10032000293A00204500205A002058002042002091
:10033000540020204D323035205300416476616EE8
:10034000636564207661726961626C65733A2053FB
:100350003D4D696E20666565647261746520286D27
:100360006D2F73292C20543D4D696E207472617677
:10037000656C20666565647261746520286D6D2FFB
:1003800073292C20423D6D696E696D756D20736512
:10039000676D656E742074696D6520286D73292CF6
:1003A00020583D6D6178696D756D205859206A65DA
:1003B000726B20286D6D2F73292C20205A3D6D61A2
:1003C00078696D756D205A206A65726B20286D6D95
:1003D0002F73292C2020453D6D6178696D756D2046
:1003E00045206A65726B20286D6D2F73290020549B
:1003F0000020204D323034205300416363656C652A
:10040000726174696F6E3A20533D616363656C6518
:10041000726174696F6E2C20543D726574726163F1
:100420007420616363656C65726174696F6E00202E
:100430004500205A0020590020204D3230312058EC
:10044000004D6178696D756D20416363656C6572FF
:100450006174696F6E20286D6D2F7332293A002008
:100460004500205A0020590020204D3230332058BA
:10047000004D6178696D756D2066656564726174A3
:10048000657320286D6D2F73293A00204500205A8E
:100490000020590020204D393220580053746570D7
:1004A000732070657220756E69743A0053657474B8
:1004B000696E67732053746F7265640050415241D6
:1004C0004441005072696E7465722073746F70706D
:1004D00065642064756520746F206572726F727335
:1004E0002E2046697820746865206572726F7220CC
:1004F000616E6420757365204D39393920746F2021
:10050000726573746172742E202854656D70657203
:1005100061747572652069732072657365742E202D
:100520005365742069742061667465722072657306
:1005300074617274696E67290050415241444120D0
:10054000444520454D4552472E005072696E7465F2
:10055000722068616C7465642E206B696C6C28294C
:100560002063616C6C656421006F6B00526573657C
:100570006E643A20002200556E6B6E6F776E2063BA
:100580006F6D6D616E643A20220043616D62696136
:10059000722066696C616D656E746F004F6666737C
:1005A0006574205A203A20007A5F6D61783A200005
:1005B0007A5F6D696E3A20004F6666736574205AE3
:1005C000004F6666736574205A206F6B006C63641D
:1005D00020636F6E74726173742076616C75653A16
:1005E00020002200556E6B6E6F776E20636F6D6D0D
:1005F000616E643A2022007A5F6D696E3A2000795C
:100600005F6D696E3A2000785F6D696E3A20002058
:100610005A3A0020593A0020436F756E7420583AB8
:10062000200020453A00205A3A0020593A00583A12
:10063000004649524D574152455F4E414D453A4D56
:1006400061726C696E2056313B20537072696E7412
:1006500065722F6772626C206D61736875702066B9
:100660006F722067656E36204649524D574152459C
:100670005F55524C3A68747470733A2F2F676974DF
:100680006875622E636F6D2F4D6F65627975732F7C
:10069000507275736149332050524F544F434F4C41
:1006A0005F56455253494F4E3A312E30204D41430B
:1006B00048494E455F545950453A507572727573AA
:1006C000612045585452554445525F434F554E544E
:1006D0003A3120555549443A30303030303030309E
:1006E0002D303030302D303030302D303030302D16
:1006F0003030303030303030303030300A005075EB
:100700007272757361204F66662E00507572727535
:100710007361206C697374612E0042656420646F9C
:100720006E652E0020423A0020453A00543A0042BD
:1007300065642048656174696E672E004865617460
:10074000696E6720646F6E652E0020573A00204561
:100750003A00543A0048656174696E672E2E2E0087
:100760002042403A0020403A00202F003A00205416
:1007700000202F0020423A00202F006F6B20543AB7
:10078000002569206D696E2C202569207365630042
:10079000456E642066696C65206C697374004265FF
:1007A00067696E2066696C65206C697374005369B3
:1007B0006E206D6F76696D69656E746F005075722D
:1007C00072757361206C697374612E005265737564
:1007D0006D69656E646F20696D7072652E0045737A
:1007E000706572616E646F206F7264656E65730010
:1007F0005265706F736F2E2E2E00256920686F75FD
:100800007273202569206D696E7574657300446F7D
:100810006E65207072696E74696E672066696C65BA
:1008200000504152414441005072696E746572201B
:1008300073746F707065642064756520746F2065D3
:1008400072726F72732E2046697820746865206515
:1008500072726F7220616E6420757365204D393934
:100860003920746F20726573746172742E2028545D
:10087000656D70657261747572652069732072654B
:100880007365742E205365742069742061667465E5
:10089000722072657374617274696E6729004E6F9D
:1008A000204C696E65204E756D62657220776974A3
:1008B0006820636865636B73756D2C204C6173747D
:1008C000204C696E653A20004E6F20436865636B6B
:1008D00073756D2077697468206C696E65206E751C
:1008E0006D6265722C204C617374204C696E653AA0
:1008F0002000636865636B73756D206D69736D614E
:100900007463682C204C617374204C696E653A20C6
:10091000004C696E65204E756D62657220697320AA
:100920006E6F74204C617374204C696E65204E7537
:100930006D6265722B312C204C617374204C696E92
:10094000653A20004D31313000446F6E652073618F
:1009500076696E672066696C652E006F6B004D329C
:1009600039002020506C616E6E6572427566666556
:100970007242797465733A20002046726565204D95
:10098000656D6F72793A20004665622031362032FB
:1009900030313700436F6D70696C65643A20002810
:1009A0004D6F6562797573204D616368696E65731B
:1009B0002C206D6F6562797573406D6F6562797516
:1009C000732E636F6D2900207C20417574686F72EF
:1009D0003A200046656220313620323031372031EE
:1009E000313A35323A333900204C617374205570F6
:1009F00064617465643A2000312E302E30004D6100
:100A0000726C696E0020536F667477617265205254
:100A10006573657400205761746368646F67205262
:100A200065736574002042726F776E206F75742055
:100A30005265736574002045787465726E616C2030
:100A4000526573657400506F7765725570007374EA
:100A5000617274002200656E717565696E6720228F
:100A6000002200656E717565696E67202200FFFFC8
:100A7000FF00000040000000400000C03F00006197
:100A80004300004D4300004D430000A0C1000000A2
:100A9000000000000000004D4300004D4300004DE9
:100AA000430000A0C1000000000000000065636872
:100AB0006F3A004572726F723A007C3C3E5E2B3D8D
:100AC0003F2F5B5D3B2C2A225C004D3834205820A0
:100AD00059205A20450043616E6E6F7420656E7414
:100AE0006572207375626469723A20004D32340079
:100AF0004D3233202573006175746F25692E6700B0
:100B00006572726F722077726974696E6720746F94
:100B10002066696C65004E6F7420534420707269C2
:100B20006E74696E67002F005344207072696E7492
:100B3000696E67206279746520002E0044656C65DB
:100B400074696F6E206661696C65642C2046696CFF
:100B5000653A200046696C652064656C657465645F
:100B60003A002E006F70656E206661696C65642CBA
:100B70002046696C653A200057726974696E672077
:100B8000746F2066696C653A20002E006F70656E88
:100B9000206661696C65642C2046696C653A2000AA
:100BA0002E006F70656E206661696C65642C20464E
:100BB000696C653A200046696C652073656C6563F5
:100BC000746564002053697A653A200046696C6553
:100BD000206F70656E65643A20002E006F70656E40
:100BE000206661696C65642C2046696C653A20005A
:100BF0004E6F772066726573682066696C653A206F
:100C0000004E6F7720646F696E672066696C653A85
:100C100020002220706F73002220706172656E7454
:100C20003A2200535542524F5554494E45204341B4
:100C30004C4C207461726765743A22007472796951
:100C40006E6720746F2063616C6C207375622D6712
:100C5000636F64652066696C6573207769746820CA
:100C6000746F6F206D616E79206C6576656C732E84
:100C7000204D4158206C6576656C2069733A0053AD
:100C8000442063617264206F6B006F70656E526FF9
:100C90006F74206661696C656400766F6C756D6554
:100CA0002E696E6974206661696C65640053442026
:100CB000696E6974206661696C0020746F6F206CC6
:100CC0006F6E6720657874727573696F6E207072CD
:100CD0006576656E7465640020636F6C642065786A
:100CE00074727573696F6E2070726576656E746567
:100CF0006400656E6473746F7073206869743A2061
:100D00005A00205A3A00656E6473746F70732068DD
:100D100069743A20590020593A00656E6473746F03
:100D20007073206869743A20580020583A00656E44
:100D30006473746F7073206869743A200024F4D46B
:100D40003050C38E20C2A24017828B7011127A914C
:100D50000D816CD90AA861E108C758660761514343
:100D6000061E4B5D05C145A7041A411104093D98B3
:100D700003713931034036DB0265339102D43054BC
:100D800002802E1D02632CEE01752AC501B028A039
:100D900001102781018F2564012B244B01E02234AF
:100DA00001AC211F018D200D01801FFC00841EED70
:100DB00000971DDF00B81CD200E61BC600201BBC3C
:100DC00000641AB200B219A8000A19A0006A1899A2
:100DD00000D117910040178B00B516840031167EA4
:100DE00000B31579003A157300C7146F0058146AE0
:100DF00000EE1366008813630025135E00C7125BC4
:100E0000006C12570015125400C111510070114F9F
:100E10000021114B00D61049008D104700461044A8
:100E20000002104200C00F4000800F3E00420F3C05
:100E300000060F3B00CB0E3800930E37005C0E35DA
:100E400000270E3400F30D3200C10D3100900D303B
:100E500000600D2E00320D2D00050D2C00D90C2B3D
:100E600000AE0C2900850C29005C0C2700350C27EE
:100E7000000E0C2600E80B2400C40B2400A00B235A
:100E8000007D0B23005A0B2100390B2100180B2089
:100E900000F80A1F00D90A1E00BB0A1E009D0A1D89
:100EA00000800A1D00630A1C00470A1B002C0A1B55
:100EB00000110A1A00F7091A00DD091900C40919FE
:100EC00000AB091900920917007B09180063091784
:100ED000004C09160036091600200916000A0915EB
:100EE00000F5081500E0081400CC081400B8081438
:100EF00000A4081400900813007D0812006B08136A
:100F00000058081200460812003408110023081186
:100F1000001208110001081100F0071000E007108E
:100F200000D0071000C0071000B0070F00A1071085
:100F30000091070E0083070F0074070F0065070E6E
:100F40000057070E0049070E003B070D002E070E45
:100F50000020070D0013070D0006070D00F9060C11
:100F600000ED060D00E0060C00D4060C00C8060CCF
:100F700000BC060C00B0060C00A4060B0099060C81
:100F8000008D060B0082060B0077060B006C060B2B
:100F90000061060A0057060B004C060A0042060ACA
:100FA0000038060A002E060A0024060A001A060A5D
:100FB000001006090007060A00FD050900F40509EE
:100FC00000EB050900E2050900D9050900D0050973
:100FD00000C7050900BE050900B5050800AD0508F4
:100FE00000A50509009C050800940508008C05086B
:100FF00000840508007C050800740508006C0507DE
:1010000000650508005D050700560508004E050748
:1010100000470507004005080038050700310507AF
:10102000002A050700230507001C05060016050712
:10103000000F0507000805060002050700FB04066F
:1010400000F5040700EE040600E8040600E20407C9
:1010500000DB040600D5040600CF040600C9040620
:1010600000C3040600BD040600B7040600B1040571
:1010700000AC040600A6040600A00405009B0406BC
:101080000095040500900406008A04050085040507
:1010900000800406007A040500750405007004054C
:1010A000006B04050066040500610405005C04058E
:1010B0000057040500520405004D040500480405CE
:1010C00000430405003E0404003A0405003504050D
:1010D00000300404002C0405002704040023040548
:1010E000001E0404001A0404001604050011040480
:1010F000000D0404000904050004040400000404B5
:1011000000FC030400F8030400F4030400F00304EB
:1011100000EC030400E8030400E4030400E003041B
:1011200000DC030400D8030400D4030400D003044B
:1011300000CC030400C8030300C503030024F40427
:10114000D9201BC40C5C0E9804C4095F02650771AA
:1011500001F405F900FB04B30048048700C10369EA
:10116000005803550003034500BE023A00840231D3
:101170000053022A002902250004022000E4011C79
:1011800000C8011900AF0117009801140084011371
:1011900000710110006101100051010E0043010DAA
:1011A0000036010B002B010B0020010B001501097B
:1011B000000C01090003010800FB000800F300080F
:1011C00000EB000700E4000600DE000600D8000681
:1011D00000D2000600CC000500C7000500C20005D3
:1011E00000BD000400B9000400B5000400B1000413
:1011F00000AD000400A9000400A5000300A2000344
:10120000009F0004009B000300980003009500026B
:101210000093000300900003008D0002008B000388
:1012200000880002008600020084000300810002A2
:10123000007F0002007D0002007B000200790002B6
:1012400000770001007600020074000200720001C5
:1012500000710002006F0002006D0001006C0002CE
:10126000006A0001006900020067000100660001D9
:1012700000650001006400020062000100610001DD
:1012800000600001005F0002005D0001005C0001E1
:10129000005B0001005A00010059000100580001E4
:1012A00000570001005600010055000100540001E4
:1012B00000530000005300010052000100510001E2
:1012C00000500001004F0001004E0000004E0001E0
:1012D000004D0001004C0001004B0000004B0001DC
:1012E000004A0001004900010048000000480001D8
:1012F00000470001004600000046000100450000D4
:1013000000450001004400010043000000430001CB
:1013100000420000004200010041000000410001C5
:1013200000400001003F0000003F0001003E0000BF
:10133000003E0001003D0000003D0001003C0000B7
:10134000003C0000003C0001003B0000003B0001AD
:10135000003A0000003A00010039000000390001A5
:10136000003800000038000000380001003700009D
:101370000037000100360000003600000036000192
:101380000035000000350000003500010034000089
:10139000003400000034000100330000003300007E
:1013A0000033000100320000003200000032000172
:1013B0000031000000310000003100010030000069
:1013C0000030000000300001002F0000002F00005E
:1013D000002F0000002F0001002E0000002E000052
:1013E000002E0001002D0000002D0000002D000047
:1013F000002D0001002C0000002C0000002C00003B
:10140000002C0001002B0000002B0000002B00002E
:10141000002B0001002A0000002A0000002A000022
:10142000002A000100290000002900000029000016
:101430000029000000290001002800000028000009
:1014400000280000002800000028000100270000FC
:1014500000270000002700000027000000270001EF
:1014600000260000002600000026000000260000E4
:1014700000260001002500000025000000250000D6
:1014800000250000002500000025000100240000C8
:1014900000240000002400000024000000240001BB
:1014A00000230000002300000023000000230000B0
:1014B00000230000002300000023000100220000A0
:1014C0000022000000220000002200000022000094
:1014D0000022000100210000002100000021000086
:1014E0000021000000210000002100000021000177
:1014F000002000000020000000200000002000006C
:10150000002000000020000000200000002000015A
:10151000001F0000001F0000001F0000001F00004F
:10152000001F0000001F0000001F0001001E00003F
:10153000001E0000001E0000001E00000045727228
:101540003A204D415854454D502042454400546581
:101550006D7065726174757265206865617465642B
:1015600020626564207377697463686564206F66C0
:10157000662E204D415854454D502074726967675E
:1015800065726564202121004572723A204D494EF2
:1015900054454D50003A2045787472756465722048
:1015A0007377697463686564206F66662E204D49A1
:1015B0004E54454D502074726967676572656420AA
:1015C00021004572723A204D415854454D50003A21
:1015D00020457874727564657220737769746368E6
:1015E0006564206F66662E204D415854454D50204D
:1015F000747269676765726564202100202D204937
:101600006E76616C696420657874727564657220A9
:101610006E756D62657220210050494420417574D9
:101620006F74756E652066696E69736865642120E4
:1016300050757420746865206C617374204B702C35
:10164000204B6920616E64204B6420636F6E73745D
:10165000616E74732066726F6D2061626F766520B3
:10166000696E746F20436F6E666967757261746925
:101670006F6E2E6800504944204175746F74756E0A
:1016800065206661696C6564212074696D656F759C
:10169000740020403A006F6B20543A006F6B204278
:1016A0003A00504944204175746F74756E65206628
:1016B00061696C6564212054656D70657261747533
:1016C000726520746F6F206869676800204B643A08
:1016D0002000204B693A2000204B703A2000204324
:1016E0006C61737369632050494420002054753A3B
:1016F0002000204B753A2000206D61783A200020B0
:101700006D696E3A200020643A200020626961739E
:101710003A20001000C90210012C01400122017082
:10172000011801B0010E01F00104015002FA00B0ED
:1017300002F0003003E600D003DC009004D2007019
:1017400005C800A006BE000008B400B009AA00D079
:101750000BA000600E960060118C00001582002026
:10176000197800C01D6E00A0226400B0275A0090B6
:101770002C500000314600E0343C0010383200901C
:101780003A2800603C1E00A03D1400803E0A002064
:101790003F000070012C0190012701B0012201C01F
:1017A000011D01F00118011002130130020E016049
:1017B00002090190020401C002FF000003FA004088
:1017C00003F5008003F000D003EB002004E6007076
:1017D00004E100E004DC004005D700C005D2004071
:1017E00006CD00D006C8008007C3003008BE00F058
:1017F00008B900C009B400B00AAF00B00BAA00D00D
:101800000CA500000EA000500F9B00C010960050C9
:1018100012910000148C00C0158700B0178200B030
:10182000197D00D01B7800001E730040206E0090D0
:10183000226900F024640040275F0090295A00E0EC
:101840002B5500102E500020304B0010324600E087
:1018500033410090353C001037370070383200A01B
:10186000392D00B03A2800A03B2300603C1E001038
:101870003D1900903D1400103E0F00703E0A00C05C
:101880003E0500003F00005461726A657461207279
:1018900065746972616461005461726A6574612083
:1018A000636F6C6F63616461004D33303020533679
:1018B00039382050323030004D33303020533635F7
:1018C00039205032303000B02000B0200059002DB7
:1018D0002D3A2D2D00426162797374657070696EC6
:1018E00067205800426162797374657070696E6731
:1018F000205900426162797374657070696E672067
:101900005A004D3630300043616D62696172206665
:10191000696C616D656E746F0042616279737465A4
:1019200070205A00426162797374657020590042D8
:1019300061627973746570205800466C756A6F2017
:101940003000466C756A6F203000466C756A6F0017
:10195000466C756A6F0056656E74696C61646F726F
:101960000056656E74696C61646F720042617365E4
:101970000042617365004E6F7A7A6C65004E6F7A33
:101980007A6C650056656C6F6369646164005665C6
:101990006C6F6369646164004D656E752070726977
:1019A0006E636970616C0050726563616C2E2050CB
:1019B0004C4120426173650050726563616C656ED5
:1019C00074617220504C4120310050726570617218
:1019D00061720050726563616C2E20414253204257
:1019E0006173650050726563616C656E746172202D
:1019F000414253203100507265706172617200582B
:101A00000059005A00457874727564657200457813
:101A1000747275736F72004D6F766572205A004D47
:101A20006F7665722059004D6F7665722058004DB3
:101A30006F76657220656A6573004D6F76657220FA
:101A4000302E316D6D004D6F76657220316D6D00F9
:101A50004D6F7665722031306D6D0050726570612A
:101A6000726172004D6F76657220656A6573004D14
:101A7000383000456E63656E646572004D38310024
:101A800041706167617200456E66726961720050F3
:101A9000726563616C656E746172204142530050DF
:101AA000726563616C656E74617220504C410041D7
:101AB0006A7573746172206F66667365747300472C
:101AC0003238004C6C6576617220616C206F7269EF
:101AD00067656E004D383400417061676172206D3A
:101AE0006F746F726573004D656E75207072696EEC
:101AF000636970616C0047756172646172206D6525
:101B00006D6F7269610042617365004261736500C7
:101B10004E6F7A7A6C65004E6F7A7A6C6500566506
:101B20006E74696C61646F720056656E74696C6185
:101B3000646F720054656D706572617475726100D6
:101B400047756172646172206D656D6F72696100C5
:101B5000426173650042617365004E6F7A7A6C650D
:101B6000004E6F7A7A6C650056656E74696C6164BC
:101B70006F720056656E74696C61646F72005465B3
:101B80006D706572617475726100416A757374611C
:101B9000722074656D702E2041425300416A757346
:101BA0007461722074656D702E20504C4100504954
:101BB000442D43005049442D43005049442D4400D6
:101BC0005049442D44005049442D49005049442D6A
:101BD00049005049442D50005049442D50000220E6
:101BE00046616374000220466163740002204D6107
:101BF000780002204D61780002204D696E000220BD
:101C00004D696E004F6666004F6E004F6666004F6E
:101C10006E004175746F74656D700056656E746901
:101C20006C61646F720056656E74696C61646F728A
:101C300000426173650042617365004E6F7A7A6C91
:101C400065004E6F7A7A6C6500436F6E74726F6CCC
:101C50000045207061736F732F6D6D0045207061BA
:101C6000736F732F6D6D005A207061736F732F6DDA
:101C70006D005A207061736F732F6D6D0059207065
:101C800061736F732F6D6D0059207061736F732FC7
:101C90006D6D0058207061736F732F6D6D0058204B
:101CA0007061736F732F6D6D00412D726574726179
:101CB000632E00412D7265747261632E00416D6167
:101CC000786500416D61786500416D61787A004109
:101CD0006D61787A00416D61787900416D61787944
:101CE00000416D61787800416D61787800567661C9
:101CF00063696F206D696E0056766163696F206D50
:101D0000696E00566D696E00566D696E00566D61A4
:101D1000786500566D61786500566D61787A005679
:101D20006D61787A00566D61787900566D617879C9
:101D300000566D61787800566D6178780056652D93
:101D40006A65726B0056652D6A65726B00567A2D56
:101D50006A65726B00567A2D6A65726B00567879E7
:101D60002D6A65726B005678792D6A65726B004139
:101D700063656C004163656C00436F6E74726F6CD9
:101D80000046696C2E204469612E20310046696C42
:101D90002E204469612E2031004F6666004F6E0090
:101DA0004F6666004F6E004520696E206D6D3300F2
:101DB000436F6E74726F6C00436F6E7472617374F4
:101DC000650044657352657420560044657352651E
:101DD00074205600446573526574202B6D6D004469
:101DE0006573526574202B6D6D004C6576616E7461
:101DF0006172206D6D004C6576616E746172206D4C
:101E00006D005265747261657220205600526574CF
:101E1000726165722020560052657472616572208D
:101E20006D6D0052657472616572206D6D004F6654
:101E300066004F6E004F6666004F6E004175746F0E
:101E4000526574722E00436F6E74726F6C0052652F
:101E500073742E20646520656D657267656E2E0053
:101E6000436172676172206D656D6F7269610047D1
:101E7000756172646172206D656D6F726961005287
:101E800065747261657200436F6E7472617374651C
:101E90000046696C616D656E74004D6F76696D69A1
:101EA000656E746F0054656D7065726174757261F2
:101EB000004D656E75207072696E636970616C00AB
:101EC0004D383420582059205A2045004D323400D6
:101ED0004D323320257300F92E2E004D656E75208E
:101EE0007072696E636970616C004E6F2068617911
:101EF000207461726A657461205344004D656E758B
:101F000020646520534400446574656E65722069E1
:101F10006D70726573696F6E005265616E75646194
:101F20007220696D707265732E00506175736172F5
:101F300020696D70726573696F6E00436F6E7472A5
:101F40006F6C00507265706172617200416A7573E6
:101F5000746172004D6F6E69746F72697A6172009C
:101F600000060900FE070199032B20FFFE08FE076B
:101F7000FE000000060000010707060200808080C6
:101F800080800080030303060104A0A0A0050707CA
:101F90000600005050F850F85050050707060000A2
:101FA0002070A07028702005070706000048A85080
:101FB0002050A89005070706000040A0A040A89068
:101FC00068010303060204808080030707060100FE
:101FD00020408080804020030707060100804020C9
:101FE000202040800505050600018850F85088052E
:101FF00005050600012020F820200303030601FF49
:10200000604080050101060003F80303030601FF99
:1020100040E04005070706000008081020408080C7
:10202000050707060000205088888850200507070C
:102030000600002060A0202020F805070706000009
:10204000708808304080F8050707060000F808107F
:102050003008887005070706000010305090F8100F
:1020600010050707060000F880B0C808887005074B
:1020700007060000304080B0C888700507070600DA
:1020800000F808101020404005070706000070887F
:1020900088708888700507070600007088986808AF
:1020A00010600307070601FF40E0400040E04003E6
:1020B00007070601FF40E040006040800407070674
:1020C000010010204080402010050303060002F8A4
:1020D00000F804070706010080402010204080051A
:1020E000070706000070881020200020050707065B
:1020F0000000708898A8B0807005070706000020CF
:10210000508888F88888050707060000F04848705E
:102110004848F005070706000070888080808870B6
:10212000050707060000F04848484848F00507073B
:10213000060000F88080F08080F8050707060000A0
:10214000F88080F080808005070706000070888096
:1021500080988870050707060000888888F88888B6
:1021600088030707060100E04040404040E00507C3
:1021700007060000381010101090600507070600D1
:10218000008890A0C0A09088050707060000808006
:1021900080808080F80507070600008888D8A88816
:1021A00088880507070600008888C8A898888805D9
:1021B000070706000070888888888870050707066A
:1021C0000000F08888F08080800508080600FF7015
:1021D00088888888A87008050707060000F08888A6
:1021E000F0A09088050707060000708880700888B6
:1021F00070050707060000F8202020202020050792
:102200000706000088888888888870050707060008
:1022100000888888505050200507070600008888ED
:1022200088A8A8D88805070706000088885020508D
:102230008888050707060000888850202020200590
:102240000707060000F80810204080F8030707067B
:102250000100E08080808080E005070706000080A4
:10226000804020100808030707060100E020202016
:102270002020E00503030600042050880501010624
:1022800000FFF8020202060206804005050506006E
:102290000070087888780507070600008080B0C8BD
:1022A00088C8B0050505060000708880887005079D
:1022B0000706000008086898889868050505060064
:1022C000007088F88070050707060000304840F06D
:1022D0004040400507070600FE7888887808887027
:1022E0000507070600008080B0C8888888030707B4
:1022F0000601004000C0404040E00409090601FE1C
:102300001000301010109090600507070600008044
:10231000808890E09088030707060100C040404095
:102320004040E0050505060000D0A8A8A8880505DE
:1023300005060000B0C888888805050506000070FD
:10234000888888700507070600FEB0C888C8B08076
:10235000800507070600FE68988898680808050544
:1023600005060000B0C880808005050506000070E5
:10237000807008F00507070600004040F040404824
:10238000300505050600008888889868050505065B
:10239000000088885050200505050600008888A8A0
:1023A000A85005050506000088502050880507073D
:1023B0000600FE88889868088870050505060000F4
:1023C000F8102040F8040707060100304020C02024
:1023D00040300107070602008080808080808004F2
:1023E0000707060100C02040304020C00503030657
:1023F000000448A890000000010000000000010057
:1024000000000000010000000000010000000000CA
:1024100001000000000001000000000001000000B9
:1024200000000100000000000100000000000100A9
:10243000000000000100000000000100000000009A
:102440000100000000000100000000000100000089
:102450000000010000000000010000000000010079
:10246000000000000100000000000100000000006A
:102470000100000000000100000000000100000059
:102480000000010000000000010000000000010049
:10249000000000000100000000000100000000003A
:1024A0000100000000000100000000000100000029
:1024B0000000010000000000010000000000060014
:1024C00000010707060200800080808080800507E9
:1024D000070600FF2078A0A0A078200507070600C7
:1024E00000304840E04048B005050506000088700F
:1024F0005070880508080600FF88885020F82020C2
:102500002001070706020080808000808080050887
:10251000080600FF7080E09048380870030101064B
:102520000107A00507070600007088A8C8A88870E2
:102530000406060601017090B05000F0060505067D
:1025400000002448904824040202060102F010040E
:102550000101060103F00507070600007088E8C8BE
:10256000C88870050101060007F80303030601048B
:1025700040A0400506060600002020F82020F804B0
:10258000050506010360902040F0040505060103DF
:10259000E0106010E0020202060206408005060616
:1025A0000600FF888888C8B0800507070600007805
:1025B000E8E86828282801010106020380020202D7
:1025C0000602FE408003050506010340C04040E0CE
:1025D0000406060601016090906000F006050506FD
:1025E000000090482448900609090600FF40C040BA
:1025F00040E40C143C040609090600FF40C04040BA
:10260000E81404081C0509090600FFC0204020C882
:1026100018287808050707060000200020204088B9
:10262000700508080600004020708888F888880532
:1026300008080600001020708888F88888050808B7
:102640000600002050708888F88888050808060071
:102650000048B0708888F88888050808060000508F
:1026600000708888F88888050808060000205070E7
:102670008888F888880607070600003C50909CF080
:10268000909C0509090600FE708880808088702073
:102690004005080806000040F88080F08080F805BA
:1026A000080806000010F88080F08080F80508080F
:1026B00006000020F88080F08080F80508080600F9
:1026C0000050F88080F08080F80308080601008040
:1026D00040E040404040E00308080601002040E0A0
:1026E00040404040E003080806010040A0E04040B0
:1026F0004040E0030808060100A000E040404040E0
:10270000E0050707060000F04848E84848F00508DB
:1027100008060000285088C8A89888880508080678
:10272000000040207088888888700508080600002E
:1027300010207088888888700508080600002050DE
:1027400070888888887005080806000028507088FE
:1027500088888870050808060000500070888888FE
:102760008870050505060000885020508805070779
:10277000060000709898A8C8C870050808060000F0
:102780004020888888888870050808060000102086
:10279000888888888870050808060000205000880E
:1027A0008888887005080806000050008888888896
:1027B0008870050808060000102088885020202016
:1027C00005070706000080F088F080808005070775
:1027D000060000708890A09088B0050808060000E8
:1027E000402000700878887805080806000010204E
:1027F00000700878887805080806000020500070EE
:1028000008788878050808060000285000700878C5
:10281000887805070706000050007008788878055A
:102820000808060000205020700878887806050502
:1028300006000078147C907C0507070600FE70886F
:10284000808870204005080806000040200070883D
:10285000F880700508080600001020007088F880D5
:10286000700508080600002050007088F880700588
:10287000070706000050007088F8807003080806FB
:102880000100804000C0404040E00308080601000D
:10289000408000C0404040E003080806010040A01E
:1028A00000C0404040E0060A0A0600FEA4A800FC62
:1028B0008480808084FC060A0A0600FE549400FC92
:1028C0008404040484FC050808060000285000B0B5
:1028D000C88888880508080600004020007088889D
:1028E0008870040A0A0602FE304080909090909012
:1028F0009090040A0A0600FEC020109090909090DC
:102900009090060707060001448C8C8480403C06AA
:10291000070706000188C4C4840408F005050506FD
:1029200000012000F8002005080806000040F0C85B
:102930008888987810050808060000E0F8888888DC
:102940008888F80505050600012030F830200508C4
:10295000080600002070F820202020E00509090664
:1029600000FF2070A8A8B888885020050909060033
:10297000FFE080C0B0A8A83028280509090600FF9C
:10298000F8A88888888888A8F8050A0A0600FE2022
:102990005050505088A8A8887000060900FE060113
:1029A0008902FE20FFFE07FE06FE0000000600076B
:1029B0000106060602008080808000800303030673
:1029C0000103A0A0A00507070600FF5050F850F82B
:1029D00050500509090600FE2070A8A07028A870B4
:1029E000200608080600FF40A848102048540805A3
:1029F00007070600FF609090609890680103030647
:102A000002038080800207070602FF4080808080EA
:102A100080400207070602FF80404040404080059A
:102A200005050600008850F85088050505060000D9
:102A30002020F820200204040602FEC04040800549
:102A40000101060002F8020202060200C0C00406EC
:102A500006060100101020408080040606060100D2
:102A600060909090906003060606010040C04040D0
:102A700040E00406060601006090102040F00406C5
:102A800006060100F020601010E0050606060000B2
:102A900010305090F810040606060100F080E01097
:102AA00010E00406060601006080E09090600406D5
:102AB00006060100F0101020404004060606010042
:102AC000609060909060040606060100609090702F
:102AD0001060020505060200C0C000C0C002070762
:102AE0000602FEC0C000C04040800505050600008B
:102AF0001860806018050303060001F800F805055A
:102B000005060000C0300830C00407070601006059
:102B10009010604000400506060600007090A8B0C6
:102B20008070050606060000205088F88888050693
:102B300006060000F088F08888F00406060601000A
:102B4000609080809060040606060100E0909090FE
:102B500090E0040606060100F080E08080F00406A4
:102B600006060100F080E080808004060606010071
:102B7000609080B090600406060601009090F0908E
:102B80009090030606060100E040404040E0050644
:102B900006060000381010109060040606060100BA
:102BA00090A0C0A09090040606060100808080805E
:102BB00080F005060606000088D8A8A888880406C4
:102BC0000606010090D0B090909005060606000021
:102BD000708888888870040606060100E09090E0FE
:102BE00080800407070601FF609090D0B060100459
:102BF0000606060100E09090E090900406060601AB
:102C000000609040209060050606060000F8202035
:102C10002020200406060601009090909090600409
:102C20000606060100909090F0606005060606001A
:102C3000008888A8A8D888050606060000885020C5
:102C400020508805060606000088885020202004B1
:102C50000606060100F010204080F003060606017B
:102C600000E080808080E00406060601008080404D
:102C7000201010030606060100E020202020E005B9
:102C800003030600032050880501010600FEF80238
:102C900002020602048040040404060100709090C1
:102CA000700406060601008080E09090E0040404B1
:102CB0000601007080807004060606010010107086
:102CC00090907004040406010060B0C07004060611
:102CD000060100205040E040400406060601FE6068
:102CE00090907010600406060601008080E09090CD
:102CF000900306060601004000C04040E0030808BB
:102D00000601FE200060202020A0400406060601E7
:102D1000008080A0C0A090030606060100C04040CD
:102D20004040E0050404060000D0A8A8880404047C
:102D3000060100E090909004040406010060909069
:102D4000600406060601FEE09090E080800406061E
:102D50000601FE709090701010040404060100A09B
:102D6000D0808004040406010070C030E004060630
:102D70000601004040E04050200404040601009099
:102D800090907004040406010090906060050404B3
:102D900006000088A8A850040404060100906060A2
:102DA000900406060601FE90909070906004040462
:102DB000060100F02040F003070706010020404014
:102DC000804040200107070602FF808080808080CD
:102DD0008003070706010080404020404080040235
:102DE0000206010350A0FFFFFFFFFFFFFFFFFFFFF1
:102DF000FFFFFFFFFFFFFFFFFFFFFFFFFFFFFFFFE3
:102E0000FFFFFFFFFFFFFF000000060007010606AF
:102E10000602008000808080800406060601FF20F4
:102E200070A0A070200507070600FF304840F04062
:102E300040F8050505060000A8508850A8050606BC
:102E40000600008850F820F8200107070602FF80DE
:102E50008080008080800407070601FF70806090FA
:102E60006010E0030101060105A006070706000047
:102E7000788494A494847803050506010160A06019
:102E800000E00505050600002850A05028040303B3
:102E9000060100F01010040101060102F006070708
:102EA0000600007884B4A4A4847804010106010516
:102EB000F00403030601026090600507070600FFA7
:102EC0002020F8202000F803050506010140A0207D
:102ED00040E0030505060101C0204020C0020202B7
:102EE00006020440800405050601FF9090B0D080E2
:102EF00005060606000078E8E868282801010106B2
:102F00000202800202020602FE408003050506015D
:102F10000140C04040E003050506010140A040001B
:102F2000E0050505060000A0502850A00508080689
:102F300000FF40C04050703078100508080600FFC0
:102F400040C04050680810380508080600FFC0203F
:102F50004030F030781004070706010020002060A0
:102F60008090600507070600004020205070888888
:102F70000507070600001020205070888805070705
:102F800006000020502050708888050707060000C2
:102F90002850205070888805070706000050002040
:102FA0005070888805070706000020502050708860
:102FB0008805060606000078A0F0A0A0B80408085E
:102FC0000601FE60908080906020400407070601A3
:102FD000004020F080E080F0040707060100204058
:102FE000F080E080F00407070601002050F080E048
:102FF00080F00407070601005000F080E080F00335
:1030000007070601008040E0404040E00307070654
:1030100001002040E0404040E00307070601004077
:10302000A0E0404040E0030707060100A000E040A8
:103030004040E00506060600007048E84848700475
:10304000070706010050A090D0B090900407070633
:103050000100402060909090600407070601002066
:103060004060909090600407070601002050609037
:1030700090906004070706010050A0609090906057
:103080000407070601005000609090906005050558
:1030900006000088502050880408080601FF1070C0
:1030A000B0B0D0D0E0800407070601004020909027
:1030B0009090600407070601002040909090906077
:1030C00004070706010020509090909060040707C5
:1030D00006010050009090909060050707060000E0
:1030E0001020885020202004060606010080E09071
:1030F00090E0800406060601006090A0A090A00465
:103100000707060100402000709090700407070632
:103110000100204000709090700407070601002015
:1031200050007090907004070706010050A00070D6
:103130009090700406060601005000709090700494
:1031400007070601002050207090907005040406C7
:10315000000070A8B0780406060601FE708080703A
:10316000204004070706010040200060B0C0700442
:10317000070706010020400060B0C0700407070682
:10318000010020500060B0C0700406060601005027
:103190000060B0C070030707060100804000C04017
:1031A00040E0030707060100204000C04040E00364
:1031B000070706010040A000C04040E003060606E5
:1031C0000100A000C04040E0040707060100306095
:1031D000107090906004070706010050A000E09076
:1031E0009090040707060100402000609090600462
:1031F0000707060100204000609090600407070662
:103200000100205000609090600407070601005004
:10321000A0006090906004060606010050006090D7
:1032200090600505050600002000F8002004040455
:1032300006010070B0D0E00407070601004020003E
:103240009090907004070706010020400090909035
:10325000700407070601002050009090907004064B
:10326000060601005000909090700409090601FEC6
:103270002040009090907090600408080601FE8045
:1032800080E09090E080800408080601FE500090E5
:1032900090907090600000000000000000000000AE
:1032A000007FFFE0000000000000000000000000C0
:1032B0007000E0000000000000000000000000615D
:1032C000F86000000000000000000000000041F86D
:1032D0002000000000000000000000000040F0207E
:1032E000000000000000000000000000406020001E
:1032F00000000000000000000000005801A07F80D6
:10330000000000000000004104005C63A0FFC0005A
:103310000000000000002082005EF7A0FFC0000057
:1033200000000000002082005EF7A0FFC000000047
:10333000000000004104005C63A07F8000000000EA
:103340000000008208005801A07F800000000000FB
:103350000001041000406020FFC0000000000000D9
:103360000104100040F020FFC00000000000000039
:1033700082080041F820FFC000000000000000416A
:10338000040061F8603F0000000000000000000041
:10339000007000E01E0000000000000001FFFF8040
:1033A0007FFFE00C0000000000000001FFFF800034
:1033B00000000000000000000000000000007FFF8F
:1033C000E00000000000000000000000007000E0CD
:1033D000000000000000000000000000630C60001E
:1033E0000000000000000000000000470E20000068
:1033F000000000000000000000004F0F200000004F
:103400000000000000000000005F0FA000000000AE
:1034100000000000000000005E07A07F80000000A8
:1034200000000000410400406020FFC000000000D8
:1034300000000020820040F020FFC00000000000DB
:10344000000020820040F020FFC0000000000000CB
:10345000004104004060207F800000000000000068
:103460008208005E07A07F800000000000000104C9
:1034700010005F0FA0FFC00000000000000104105A
:10348000004F0F20FFC00000000000000082080075
:10349000470E20FFC0000000000000004104006350
:1034A0000C603F0000000000000000000000700001
:1034B000E01E0000000000000001FFFF807FFFE031
:1034C0000C0000000000000001FFFF800000000071
:1034D00000000000000000000000000000000000EC
:1034E00000000000000000000000000000000000DC
:1034F00000000000000000000000000000000000CC
:10350000000003C00000000000003FFE00000000BB
:103510000001FFFF800000000007FFFFE000000047
:10352000000FFFFFF0000000001FFFFFF800000089
:10353000003FFFFFFC000000007FFFFFFE000000D7
:1035400000FFFFFFFF00000001FFFFFFFF80000002
:1035500001FFFFFFFF80000003FFFFFFFFC000002F
:1035600003FF8001FFC0000007F800000FE000002B
:1035700007C0000003E000000700000000F00000AA
:103580000E000000003000000C00000000100000E1
:10359000180000000018000038000000000C0000B7
:1035A00070000000000E000070000000000F00001E
:1035B000F0000000000F0001F0000000000F80018B
:1035C000F0000000000F8003F0000000000FC003B7
:1035D000F8000000001FC007F8000000001FE0070F
:1035E000F8000000001FE007F8000000001FE007DF
:1035F000FC000000003FE007FC000000003FF00777
:10360000FE000000007FF007FE000000007FF007D2
:10361000FF000000007FF007FF00000000FFF00740
:10362000FF80000000FFE007FF80000001FFE007CF
:10363000FFC0000003FFE007FFC0000003FFE0033E
:10364000FFE0000007FFC003FFF000000FFFC00114
:10365000FFF000000FFFC001FFF800001FFF800017
:10366000FFFC00003FFF0000FFFE00007FFF0000A6
:103670007FFF0000FFFE00003FFF8001FFFC000015
:103680001FFFC003FFF800000FFFE007FFF000007E
:1036900003FFF81FFFC0000000FFFFFFFF00000056
:1036A000003FFFFFFC0000000001C003800000009D
:1036B000000000000000000000000000000000000A
:1036C00000000000000000000000000000000000FA
:1036D000091200FC0A01E803D720FFFD0EFD0BFDD7
:1036E00000000009000E010B0B090400808080809F
:1036F000808080000080800404040903079090907B
:1037000090080A0A090000242424FF2424FF24240A
:1037100024070B0B0901FF107C9290503814129271
:103720007C10070A0A09010042A4A4481010244A88
:103730004A84070A0A0901006090909060629488A8
:10374000946201040409040780808080030C0C0942
:1037500003FF204040808080808080404020030C18
:103760000C0903FF80404020202020202040408082
:1037700007070709010310925438549210070707EE
:10378000090101101010FE1010100204040904FEBB
:10379000C0C04080070101090104FE0202020904C1
:1037A00000C0C0070A0A0901000204040810102022
:1037B000404080070A0A09010038448282828282DE
:1037C000824438070A0A0901001030509010101086
:1037D0001010FE070A0A090100384482020408108A
:1037E0002040FE070A0A090100FE0204081804022C
:1037F000028478070A0A090100040C14244484FE98
:10380000040404070A0A090100FE808080F804020B
:10381000028478070A0A0901003C408080B8C4820B
:10382000824438070A0A090100FE0204040808104D
:10383000101010070A0A09010038448244384482F3
:10384000824438070A0A09010038448282463A0253
:10385000020478020707090400C0C0000000C0C0CD
:103860000209090904FEC0C0000000C0C040800574
:1038700009090902000810204080402010080704B0
:1038800004090102FE0000FE05090909020080404A
:1038900020100810204080070A0A090100384482DD
:1038A00002040810100010070A0A09010038449A9F
:1038B000AAAAAAAA9C403C070A0A090100102828C3
:1038C00028447C44828282070A0A090100F8848223
:1038D00084F884828284F8070A0A0901003C428045
:1038E0008080808080423C070A0A090100F88482B7
:1038F000828282828284F8070A0A090100FE80809F
:1039000080F880808080FE070A0A090100FE80801E
:1039100080F88080808080070A0A0901003844828C
:1039200080808E82824438070A0A090100828282DE
:1039300082FE8282828282050A0A090200F8202021
:10394000202020202020F8070A0A0901003E08084C
:1039500008080808888870070A0A09010082848814
:1039600090A0D088848282070A0A090100808080A2
:10397000808080808080FE070A0A0901008282C65A
:10398000AA928282828282070A0A0901008282C286
:10399000A2928A86828282070A0A0901007C8282B8
:1039A0008282828282827C070A0A090100F884826C
:1039B0008284F880808080080B0B0901FF384482E4
:1039C000828282828A443A01070A0A090100F88445
:1039D000828284F890888482070A0A0901007C8226
:1039E00080807C020202827C070A0A090100FE1024
:1039F0001010101010101010070A0A09010082821E
:103A00008282828282824438070A0A090100828205
:103A10008244444428282810070A0A0901008282A7
:103A2000828292929292AA44070A0A090100828233
:103A30004428101028448282070A0A090100828261
:103A40004428101010101010070A0A090100FE0285
:103A500004081020408080FE040C0C0903FFF08055
:103A6000808080808080808080F0070A0A090100C1
:103A700080404020101008040402040C0C0902FFCE
:103A8000F010101010101010101010F0070404099E
:103A90000106102844820801010900FFFF03030307
:103AA00009030A8040200707070901007C02027E03
:103AB00082867A070A0A090100808080BCC282825D
:103AC00082C2BC0707070901007C82808080827C5B
:103AD000070A0A0901000202027A86828282867A35
:103AE0000707070901007C8282FE80827C070A0AA0
:103AF0000901001C22222020F820202020070A0A89
:103B00000901FD7A84848478807C82827C070A0A99
:103B1000090100808080BCC28282828282050A0AFA
:103B2000090200600000E02020202020F8050D0D93
:103B30000902FD180000380808080808088888707D
:103B4000070A0A090100808080848890B0C88482B6
:103B5000050A0A090200E02020202020202020F869
:103B6000070707090100EC929292929282070707D9
:103B7000090100BCC2828282828207070709010014
:103B80007C82828282827C070A0A0901FDB8C48293
:103B90008282C4B8808080070A0A0901FD3A468201
:103BA0008282463A0202020707070901009C62422C
:103BB000404040400707070901007C82807C028268
:103BC0007C0709090901002020FC20202020221C5C
:103BD0000707070901008282828282867A07070727
:103BE00009010082824444282810070707090100C0
:103BF0008282929292AA4407070709010082442810
:103C000010284482070A0A0901FD4242242424188C
:103C100018109060070707090100FE0408102040F3
:103C2000FE060B0B0902001C20202020C0202020B3
:103C3000201C010C0C0904FF808080808080808023
:103C400080808080060B0B090100E0101010100C22
:103C500010101010E007030309010762928CFFFFA8
:103C6000FFFFFFFFFFFFFFFFFFFFFFFFFFFFFFFF64
:103C7000FFFFFFFFFFFFFFFFFFFFFFFFFFFFFF0053
:103C8000000009000E010B0B090400808000008079
:103C90008080808080800608080901000878949060
:103CA000A0A47840070A0A0901001C222020F8205D
:103CB0002060A25C070606090103827C44447C82E2
:103CC000070A0A090100828244287C107C10101027
:103CD000010B0B0904FF8080808080008080808041
:103CE00080040B0B0902FF60908060909090601040
:103CF000906003020209030BA0A008090909000152
:103D00003C4299A5A1A599423C050707090103601A
:103D10009070907800F80708080901011224489073
:103D200090482412060404090102FC04040405015D
:103D300001090204F80809090900013C42B9A5BDBE
:103D4000A9A5423C060101090109FC040404090378
:103D50000660909060070909090101101010FE101B
:103D6000101000FE0406060901046090106080F047
:103D70000406060901046090201090600303030903
:103D8000030A2040800709090901FE82828282829B
:103D9000C6BA8080070A0A0901007E8A8A8A7A0ADE
:103DA0000A0A0A0A020202090404C0C00403030941
:103DB00002FD20906003060609010440C040404017
:103DC000E00506060901047088887000F8070808F5
:103DD0000901019048241212244890070A0A090197
:103DE0000040C0404042E60A121A06070A0A0901CA
:103DF0000040C040404CF2020C101E070A0A0901A4
:103E0000006090201092660A121A06070A0A090139
:103E1000001000101020408082827C070E0E0901E5
:103E2000002010080010282828447C448282820741
:103E30000E0E0901000810200010282828447C4498
:103E4000828282070E0E09010010284400102828E3
:103E500028447C44828282070D0D090100345800F9
:103E600010282828447C44828282070D0D09010015
:103E700028280010282828447C44828282070E0EBD
:103E80000901001028281010282828447C44828228
:103E900082070A0A0901001E2828284E78488888C7
:103EA0008E070D0D0901FD3C42808080808080429C
:103EB0003C082418070E0E09010020100800FE809F
:103EC0008080F880808080FE070E0E0901000810B7
:103ED0002000FE808080F880808080FE070E0E0922
:103EE000010010284400FE808080F880808080FEE1
:103EF000070D0D090100282800FE808080F88080D1
:103F00008080FE050E0E09020040201000F82020DF
:103F1000202020202020F8050E0E0902001020404D
:103F200000F82020202020202020F8050E0E090275
:103F30000020508800F82020202020202020F80594
:103F40000D0D090200505000F820202020202020D4
:103F500020F8070A0A09010078444242F24242422C
:103F60004478070D0D0901003458008282C2A292E4
:103F70008A86828282070E0E090100201008007CCA
:103F800082828282828282827C070E0E0901000870
:103F90001020007C82828282828282827C070E0EC6
:103FA000090100102844007C8282828282828282FF
:103FB0007C070D0D0901003458007C8282828282C8
:103FC0008282827C070D0D0901002828007C8282F4
:103FD0008282828282827C0707070901018244284B
:103FE00010284482070C0C0901FF027C868A8A9201
:103FF00092A2A2C27C80070E0E09010020100800C8
:1040000082828282828282824438070E0E090100F7
:104010000810200082828282828282824438070EC7
:104020000E090100102844008282828282828282EC
:104030004438070D0D0901002828008282828282FF
:104040008282824438070E0E090100081020008287
:10405000824428101010101010070A0A090100806D
:1040600080FC828282FC808080060A0A0901003876
:10407000444448D04844444458070B0B09010020ED
:104080001008007C02027E82867A070B0B09010071
:10409000081020007C02027E82867A070B0B090141
:1040A00000102844007C02027E82867A070A0A09F0
:1040B00001003458007C02027E82867A070A0A09CF
:1040C00001002828007C02027E82867A070C0C09F7
:1040D000010010282810007C02027E82867A0707E1
:1040E000070901006C12127E90926C070A0A0901FE
:1040F000FD7C82808080827C104830070B0B090198
:1041000000201008007C8282FE80827C070B0B0955
:104110000100081020007C8282FE80827C070B0B4D
:10412000090100102844007C8282FE80827C070AFC
:104130000A0901002828007C8282FE80827C050C0E
:104140000C0902008040200000E02020202020F800
:10415000050C0C0902001020400000E02020202067
:1041600020F8050C0C0902002050880000E02020F7
:10417000202020F8050B0B09020050500000E02021
:1041800020202020F8070B0B090100483050083C84
:10419000448282824438070A0A090100345800BC6C
:1041A000C28282828282070B0B0901002010080064
:1041B0007C82828282827C070B0B0901000810201E
:1041C000007C82828282827C070B0B09010010280E
:1041D00044007C82828282827C070A0A09010034C0
:1041E00058007C82828282827C070A0A09010028A8
:1041F00028007C82828282827C07090909010010E2
:10420000381000FE001038100709090901FF027C70
:104210008A8A92A2A27C80070B0B09010040201021
:10422000008282828282867A070B0B0901000810C5
:1042300020008282828282867A070B0B090100109D
:104240002844008282828282867A070A0A09010053
:104250002828008282828282867A070E0E0901FD5A
:104260000408100042422424241818109060070B00
:104270000B0901FE8080B8C4828282C4B8808007A6
:104280000D0D0901FD242400424224242418181095
:10429000906001050800FF060121023520FFFF079D
:1042A000FF06FF090050221656808080800080158E
:1042B0003353A0A0A00257575050F850F850500266
:1042C00057572070A07028702013355580A040A04B
:1042D0002002475740A0A040A0A050251353808043
:1042E00080122656408080808040122656804040B2
:1042F0004040800245559060F06090025555202066
:10430000F82020113353604080044151F0113353A1
:1043100040E0400246561010204080801236564041
:10432000A0A0A0A04012365640C0404040E0024647
:10433000566090106080F0024656F0206010906049
:104340000246562060A0F02020024656F080E01081
:1043500090600246566080E0909060024656F010F1
:104360002020404002465660906090906002465681
:10437000609090701060122555C0C000C0C011360A
:104380005660600060408012365620408080402099
:10439000034353F000F01236568040202040801234
:1043A000365640A020400040015858304898A8A8F0
:1043B000904030024656609090F09090024656E051
:1043C00090E09090E00246566090808090600246B7
:1043D00056E090909090E0024656F080E08080F0A9
:1043E000024656F080E0808080024656609080B0A1
:1043F00090600246569090F0909090123656E040B1
:10440000404040E002465670202020A04002465620
:1044100090A0C0A0A0900246568080808080F002CC
:10442000465690F0F090909002465690D0F0B0B082
:1044300090024656609090909060024656E09090B0
:10444000E08080014757609090D0B06010024656DF
:10445000E09090E09090024656609040209060126C
:104460003656E04040404040024656909090909032
:1044700060024656909090906060024656909090F0
:10448000F0F09002465690906060909002565688E8
:104490008850202020024656F010204080F012362E
:1044A00056E080808080E0024656808040201010D8
:1044B000123656E020202020E016325240A0014162
:1044C00051F016225280400244547090907002467F
:1044D000568080E09090E012345460808060024604
:1044E0005610107090907002445460B0C060024644
:1044F00056205040E04040014555609070106002E9
:1045000046568080E09090901236564000C0404061
:10451000E01137572000202020A04002465680801E
:1045200090E09090123656C040404040E002545413
:10453000D0A8A8A8024454E09090900244546090FF
:104540009060014555E090E0808001455570907085
:104550001010024454A0D0808012345460C020C097
:104560000246564040E040502002445490909070E3
:10457000123454A0A0A04002545488A8A850024469
:104580005490606090014555909070906002445442
:10459000F02040F0024757304020C0204030221623
:1045A00056808080808080024757C0204030402065
:1045B000C006425250A0FFFFFFFFFFFFFFFFFFFFBB
:1045C000FFFFFFFFFFFFFFFFFFFFFFFFFFFFFFFFFB
:1045D000FFFFFFFFFFFFFF090050221656800080FB
:1045E0008080800146562070A0A070200246562090
:1045F00050E04050A00255558870507088025656C1
:104600008850F820F8202217578080800080808012
:104610000247577080E0907010E0173151A00256A9
:104620005670A8C8C8A87014355560A06000E00393
:10463000435350A050123353E02020143151E00274
:10464000565670E8D8E8D870173151E0153353400A
:10465000A04012355540E04000E014355540A02000
:1046600040E0143555C020C020C0162252408001C1
:104670004555909090E08002565678E8E8682828E2
:1046800024115180112252408014355540C04040C1
:10469000E014355540A04000E0034353A050A00271
:1046A0004757808080A060F0200247578080A0D0CC
:1046B00010207002475780408060A0F020123656CC
:1046C00040004080A04002475740206090F090900A
:1046D00002475720406090F09090024757609060EA
:1046E00090F0909002475750A06090F09090024751
:1046F0005790006090F0909002475760906090F063
:10470000909002465670A0A0F0A0B001475760906C
:1047100080809060400247574020F080E080F002A7
:1047200047572040F080E080F00247576090F080CB
:10473000E080F00247579000F080E080F012375799
:104740008040E0404040E01237572040E040404089
:10475000E012375740A0E0404040E0123757A00039
:10476000E0404040E00256567048E8484870024732
:104770005750A090D0B09090024757402060909042
:1047800090600247572040609090906002475760C9
:1047900090609090906002475750A0609090906019
:1047A00002475790006090909060123353A040A051
:1047B00002465670B0B0D0D0E002475740209090EB
:1047C0009090600247572040909090906002475729
:1047D00060909090909060024757900090909090D9
:1047E000600257571020885020202002465680E053
:1047F0009090E0800246566090A0A090A00247579B
:1048000040200070909070024757204000709090B8
:10481000700247572050007090907002475750A088
:104820000070909070024656500070909070024751
:104830005760906070909070025454F068B0781196
:104840003555608080604002475740200060B0C00E
:104850006002475720400060B0C060024757609038
:104860000060B0C060024656500060B0C0601237B1
:1048700057804000C04040E0123757204000C04001
:1048800040E012375740A000C04040E0123656A02A
:1048900000C04040E0024757A040A0107090600266
:1048A000475750A000E0909090024757402000608A
:1048B00090906002475720400060909060024757F8
:1048C0006090006090906002475750A00060909008
:1048D000600246569000609090601235554000E0AE
:1048E000004002445470B0D0E0024757402000908E
:1048F0009090700247572040009090907002475768
:104900006090009090907002465690009090907049
:104910000148582040009090709060014757808077
:10492000E090E08080014757900090907090600088
:10493000000A0B02090C0D0E080703040100000019
:104940000000000000000000000000000000000067
:104950000000000000000000000000121110000024
:104960000000000000000000000000000000000047
:104970000000000000010210202008081020401054
:104980002040800201020108040201010204081013
:104990002040808040201008040201800402018031
:1049A000402010080402010804020101020408105A
:1049B00020408001020408102040800505050507FD
:1049C0000508080808020202020A0A08080404048A
:1049D00004010101010101010103030303030303B6
:1049E00003040707070C0C0C0C0C0C0C0C02020245
:1049F0000206060606060606060B0B0B0B0B0B0B38
:104A00000B000020002300260029002C002F00327C
:104A10000000010000030106010901000022002539
:104A20000028002B002E0031003400020100000598
:104A30000108010B0100002100240027002A002D9D
:104A4000003000330001010000040107010A0102E7
:104A50004E414E494E495459494E46CDCCCC3D0A63
:104A6000D7233C17B7D13877CC2B329595E6241F46
:104A7000B14F0A000020410000C84200401C4620FF
:104A8000BCBE4CCA1B0E5AAEC59D740057570EE9EA
:104A90005B5711241FBECFEFD1E2DEBFCDBF00E0D8
:104AA0000CBF14E0A0E0B2E0ECE0F2E002E00BBFEB
:104AB00002C007900D92AE3EB107D9F724E1AEEEE9
:104AC000B4E001C01D92A33EB207E1F71AE4C0E9C9
:104AD000DAE400E006C022970109FE010BBF0E9444
:104AE000A9FACC38D10780E00807A9F70E948DF514
:104AF0000D94F5000C940000EF92FF920F931F931A
:104B0000CF93DF931F92CDB7DEB78C017B01460FA9
:104B1000F70161917F01F8018081918149830F94B0
:104B20003E00F801808191810196918380834981C3
:104B30004E11EECF0F90DF91CF911F910F91FF900B
:104B4000EF900895EF92FF920F931F93CF93DF930F
:104B50001F92CDB7DEB78C017B01460FF801808133
:104B6000918149830F943600F70181937F01F80109
:104B70008081918101969183808349814E11EECF8E
:104B80000F90DF91CF911F910F91FF90EF900895BB
:104B90000F931F93CF93DF93CDB7DEB72A970FB64E
:104BA000F894DEBF0FBECDBF80E390E3A0E3B0E09A
:104BB0008D839E83AF83B88704E610E01A87098748
:104BC00044E0BE016B5F7F4FCE01099695DF40E167
:104BD00067E571E1CE0109968FDF40E167E671E19B
:104BE000CE01099689DF40E167E471E1CE010996C3
:104BF00083DF44E06FE371E1CE0109967DDF44E09D
:104C00006BE371E1CE01099677DF44E063E471E183
:104C1000CE01099671DF44E06BE271E1CE010996A5
:104C20006BDF44E067E771E1CE01099665DF44E0A0
:104C300067E371E1CE0109965FDF44E063E371E170
:104C4000CE01099659DF44E06FE271E1CE01099689
:104C500053DF4CE06BE577E0CE0109964DDF42E093
:104C600066EA74E1CE01099647DF42E064EA74E146
:104C7000CE01099641DF42E062EA74E1CE01099675
:104C80003BDF42E060EA74E1CE01099635DF42E0A5
:104C90006EE974E1CE0109962FDF42E06CE974E120
:104CA000CE01099629DF44E064E577E0CE0109965C
:104CB00023DF44E066E872E0CE0109961DDF44E0A0
:104CC00062E872E0CE01099617DF44E06EE772E019
:104CD000CE01099611DF42E069E972E1CE01099641
:104CE0000BDF41E060E577E0CE01099605DF44E0A7
:104CF00065E272E0CE010996FFDE44E06DE172E00C
:104D0000CE010996F9DE44E06BE477E0CE01099626
:104D1000F3DE44E069E172E0CE010996EDDE44E0A5
:104D200061E172E0CE010996E7DE41E067E777E0F6
:104D3000CE010996E1DE44E065E472E0CE01099619
:104D4000DBDE86E591E3A3E3B0E089839A83AB835E
:104D5000BC831A87098744E0BE016F5F7F4FCE0195
:104D60000996CADEEDEAFAE08491882341F0909139
:104D7000C00095FFFCCF8093C6003196F5CFECEADA
:104D8000F4E08491882341F09091C00095FFFCCF1E
:104D90008093C6003196F5CF8091C00085FFFCCF8F
:104DA0008AE08093C6002A960FB6F894DEBF0FBE45
:104DB000CDBFDF91CF911F910F910895CF93DF93D6
:104DC000CDEADAE0FE018491882341F09091C000A1
:104DD00095FFFCCF8093C6003196F5CFECE9F4E067
:104DE0008491882341F09091C00095FFFCCF80937F
:104DF000C6003196F5CF8091C00085FFFCCF8AE0D8
:104E00008093C600FE018491EDEAFAE0882349F020
:104E10009091C00095FFFCCF8093C600319684919D
:104E2000F5CF4091571150915811609159117091DF
:104E30005A1184E994E00E94673140915B115091CE
:104E40005C1160915D1170915E1181E994E00E94A6
:104E5000673140915F1150916011609161117091C3
:104E600062118EE894E00E94673140916311509185
:104E7000641160916511709166118BE894E00E9455
:104E800067318091C00085FFFCCF8AE08093C60027
:104E9000FE018491EDEAFAE0882349F09091C00088
:104EA00095FFFCCF8093C60031968491F5CFE1E762
:104EB000F4E08491882341F09091C00095FFFCCFED
:104EC0008093C6003196F5CF8091C00085FFFCCF5E
:104ED0008AE08093C600FE018491EDEAFAE088231F
:104EE00049F09091C00095FFFCCF8093C6003196A9
:104EF0008491F5CF409167115091681160916911CB
:104F000070916A1188E694E00E94673140916B11BC
:104F100050916C1160916D1170916E1185E694E065
:104F20000E94673140916F11509170116091711121
:104F30007091721182E694E00E9467314091731182
:104F40005091741160917511709176118FE594E014
:104F50000E9467318091C00085FFFCCF8AE080937A
:104F6000C600FE018491EDEAFAE0882349F09091B1
:104F7000C00095FFFCCF8093C60031968491F5CF99
:104F8000E1E4F4E08491882341F09091C00095FF22
:104F9000FCCF8093C6003196F5CF8091C00085FF8D
:104FA000FCCF8AE08093C600FE018491EDEAFAE02E
:104FB000882349F09091C00095FFFCCF8093C600F4
:104FC00031968491F5CF40914711509148116091ED
:104FD000491170914A1188E394E00E947831409120
:104FE0004B1150914C1160914D1170914E1185E310
:104FF00094E00E94783140914F115091501160918E
:1050000051117091521182E394E00E9478314091E5
:1050100053115091541160915511709156118FE2B6
:1050200094E00E9478318091C00085FFFCCF8AE037
:105030008093C600FE018491EDEAFAE0882349F0EE
:105040009091C00095FFFCCF8093C600319684916B
:10505000F5CFEAEFF3E08491882341F09091C0000E
:1050600095FFFCCF8093C6003196F5CF8091C000AC
:1050700085FFFCCF8AE08093C600FE018491EDEAB3
:10508000FAE0882349F09091C00095FFFCCF80930F
:10509000C60031968491F5CF40913F115091401157
:1050A000609141117091421181EF93E00E9467314C
:1050B00040913B1150913C1160913D1170913E1116
:1050C0008EEE93E00E9467318091C00085FFFCCF97
:1050D0008AE08093C600FE018491EDEAFAE088231D
:1050E00049F09091C00095FFFCCF8093C6003196A7
:1050F0008491F5CFEBE3F3E08491882341F0909124
:10510000C00095FFFCCF8093C6003196F5CF80910B
:10511000C00085FFFCCF8AE08093C600FE01849129
:10512000EDEAFAE0882349F09091C00095FFFCCFAA
:105130008093C60031968491F5CF409143115091F0
:105140004411609145117091461182E393E00E94F1
:10515000673140912B1150912C1160912D1170915C
:105160002E118FE293E00E946731409177115091A8
:1051700078116091791170917A118CE293E00E941C
:1051800078314091371150913811609139117091F7
:105190003A1189E293E00E946731409133115091B6
:1051A0003411609135117091361186E293E00E94BE
:1051B000673140912F1150913011609131117091F0
:1051C000321183E293E00E9467318091C00085FF35
:1051D000FCCF8AE08093C600FE018491EDEAFAE0FC
:1051E000882349F09091C00095FFFCCF8093C600C2
:1051F00031968491F5CFE1E1F3E08491882341F089
:105200009091C00095FFFCCF8093C6003196F5CFFA
:105210008091C00085FFFCCF8AE08093C600FE012C
:105220008491EDEAFAE0882349F09091C00095FF5F
:10523000FCCF8093C60031968491F5CF40915B07F7
:1052400050915C0760915D0770915E0788E093E084
:105250000E94673140915F0750916007609161073C
:105260007091620785E093E00E9467314091630787
:1052700050916407609165077091660782E093E042
:105280000E9467318091C00085FFFCCF8AE0809347
:10529000C600FE018491EDEAFAE0882349F090917E
:1052A000C00095FFFCCF8093C60031968491F5CF66
:1052B000E4EFF2E08491882341F09091C00095FFE3
:1052C000FCCF8093C6003196F5CF8091C00085FF5A
:1052D000FCCF8AE08093C600FE018491EDEAFAE0FB
:1052E000882349F09091C00095FFFCCF8093C600C1
:1052F00031968491F5CF409186025091870260915A
:105300008802709189028AEE92E0E1D76091820270
:105310007091830280918402909185020E94BE9ACE
:10532000AB01BC0187EE92E0D2D760917E02709112
:105330007F0280918002909181020E94CA9AAB0103
:10534000BC0184EE92E0C3D78091C00085FFFCCF02
:105350008AE08093C600FE018491EDEAFAE088239A
:1053600049F09091C00095FFFCCF8093C600319624
:105370008491F5CFE0EBF2E08491882341F09091A5
:10538000C00095FFFCCF8093C6003196F5CF809189
:10539000C00085FFFCCF8AE08093C600FE018491A7
:1053A000EDEAFAE0882349F09091C00095FFFCCF28
:1053B0008093C60031968491F5CF4091250250919B
:1053C0002602609127027091280286EA92E07FD738
:1053D00020E030E040E752E460911D0270911E022F
:1053E00080911F02909120020E944AF9AB01BC01FA
:1053F00083EA92E06CD740914B0750914C07609143
:105400004D0770914E0780EA92E061D78091C0000D
:1054100085FFFCCF8AE08093C600FE018491EDEA0F
:10542000FAE0882349F09091C00095FFFCCF80936B
:10543000C60031968491F5CFE4E7F2E084918823A9
:1054400041F09091C00095FFFCCF8093C60031964B
:10545000F5CF8091C00085FFFCCF8AE08093C60025
:10546000FE018491EDEAFAE0882349F09091C000B2
:1054700095FFFCCF8093C60031968491F5CF409183
:10548000190250911A0260911B0270911C028AE667
:1054900092E01DD720E030E040E752E46091110235
:1054A0007091120280911302909114020E944AF9A5
:1054B000AB01BC0187E692E00AD78091C00085FF6E
:1054C000FCCF8AE08093C600FE018491EDEAFAE009
:1054D000882349F09091C00095FFFCCF8093C600CF
:1054E00031968491F5CFEDE0F2E08491882341F08C
:1054F0009091C00095FFFCCF8093C6003196F5CF08
:105500008091C00085FFFCCF8AE08093C600FE0139
:105510008491EDEAFAE0882349F09091C00095FF6C
:10552000FCCF8093C60031968491F5CF409150070F
:1055300050E060E070E083E092E0DAD68091C00055
:1055400085FFFCCF8AE08093C600FE018491EDEADE
:10555000FAE0882349F09091C00095FFFCCF80933A
:10556000C60031968491F5CF80917707882399F111
:10557000E0EFF1E08491882341F09091C00095FF25
:10558000FCCF8093C6003196F5CF8091C00085FF97
:10559000FCCF8AE08093C600FE01C491EDEAFAE0F8
:1055A000CC2349F08091C00085FFFCCFC093C6009A
:1055B0003196C491F5CF40914502509146026091D9
:1055C00047027091480286EE91E081D68091C0003A
:1055D00085FFFCCF11C0EAECF1E08491882341F013
:1055E0009091C00095FFFCCF8093C6003196F5CF17
:1055F0008091C00085FFFCCF8AE08093C600DF91D8
:10560000CF910895AF92BF92CF92DF92EF92FF9227
:105610000F931F93CF93DF93CDB7DEB7E0970FB60D
:10562000F894DEBF0FBECDBF80E1E1EBF2E0DE011A
:10563000919601900D928A95E1F780E1E1ECF2E01C
:10564000DE01519601900D928A95E1F780E1E1ED3E
:10565000F2E0DE01119601900D928A95E1F76E015C
:1056600081E2C80ED11C87E5E82E81E1F82E8E017B
:105670000F5E1F4F67E671E1AE014F5F5F4F97E42A
:10568000A92E91E1B92E20E030E0F60181919191AF
:10569000A191B1916F01F70181939193A193B1937E
:1056A0007F01F80181919191A191B1918F01FB014D
:1056B00081939193A193B193BF01FA01819191914B
:1056C000A191B191AF01F50181939193A193B19310
:1056D0005F012F5F3F4F24303105B9F60E94768677
:1056E00080E090E4ACE1B5E480933F1190934011E9
:1056F000A0934111B093421180E090ECAAE5B5E48B
:1057000080933B1190933C11A0933D11B0933E11B7
:1057100010924311109244111092451110924611AB
:1057200080E29EE4A0E0B0E080937711909378113E
:10573000A0937911B0937A1110922B1110922C1121
:1057400010922D1110922E1180E090E0A0E7B1E4AC
:105750008093371190933811A0933911B0933A1177
:105760008DEC9CECACECBEE3809333119093341140
:10577000A0933511B093361180E090E0A0EAB0E438
:1057800080932F1190933011A0933111B093321167
:1057900010926307109264071092650710926607D3
:1057A00010925F07109260071092610710926207D3
:1057B00010925B0710925C0710925D0710925E07D3
:1057C00084EB90E09093A7148093A6148CE390E070
:1057D0009093A5148093A41480E890E09093A31470
:1057E0008093A2142CED30E03093A1142093A014E8
:1057F00024E630E030939F1420939E1490939D14E0
:1058000080939C1480E290E090939A128093991276
:105810008AE999E9A1EBB1E480938602909387022B
:10582000A0938802B093890261E77DE38AE89FE351
:105830000E94B89A609382027093830280938402DC
:105840009093850260E070E084EE92E40E94C49A36
:1058500060937E0270937F02809380029093810216
:105860000E94FA9080E090E0A0E8BFE380937A0283
:1058700090937B02A0937C02B0937D02109250071C
:105880008093250290932602A0932702B0932802CA
:1058900040E050E060EF71E440931D0250931E021F
:1058A00060931F027093200210924B0710924C07D6
:1058B00010924D0710924E078093190290931A028E
:1058C000A0931B02B0931C0240931102509312024A
:1058D00060931302709314021092770780E090E0B7
:1058E000A0E4B0E48093450290934602A09347025F
:1058F000B09348020E948F3EEDEAFAE0849188233B
:1059000041F09091C00095FFFCCF8093C600319686
:10591000F5CFEEE8F1E08491882341F09091C0004A
:1059200095FFFCCF8093C6003196F5CF8091C000E3
:1059300085FFFCCF8AE08093C600E0960FB6F8940E
:10594000DEBF0FBECDBFDF91CF911F910F91FF90B2
:10595000EF90DF90CF90BF90AF900895CF93DF93FB
:10596000CDB7DEB72A970FB6F894DEBF0FBECDBF16
:1059700084E690E09A87898786E591E3A3E3B0E027
:1059800089839A83AB83BC8344E0BE016B5F7F4F06
:10599000CE010996D7D843E050E0BE016B5F7F4F40
:1059A000CE0101960E94FDFD892B09F0E2C040E185
:1059B00067E571E1CE010996C5D840E167E671E17E
:1059C000CE010996BFD840E167E471E1CE010996A6
:1059D000B9D80E94768644E06FE371E1CE01099662
:1059E000B1D844E06BE371E1CE010996ABD844E055
:1059F00063E471E1CE010996A5D844E06BE271E160
:105A0000CE0109969FD844E067E771E1CE0109967F
:105A100099D844E067E371E1CE01099693D844E058
:105A200063E371E1CE0109968DD844E06FE271E144
:105A3000CE01099687D84CE06BE577E0CE01099658
:105A400081D842E066EA74E1CE0109967BD842E053
:105A500064EA74E1CE01099675D842E062EA74E125
:105A6000CE0109966FD842E060EA74E1CE01099652
:105A700069D842E06EE974E1CE01099663D842E04C
:105A80006CE974E1CE0109965DD844E064E577E005
:105A9000CE01099657D844E066E872E0CE01099637
:105AA00051D844E062E872E0CE0109964BD844E058
:105AB0006EE772E0CE01099645D842E069E972E1ED
:105AC000CE0109963FD841E060E577E0CE01099626
:105AD00039D844E065E272E0CE01099633D844E05B
